{
  "address": "0x62a1b31fF442531A34e3EE31ABB7698f10E0F229",
  "abi": [
    {
      "inputs": [
        {
          "internalType": "string",
          "name": "_name",
          "type": "string"
        },
        {
          "internalType": "string",
          "name": "_symbol",
          "type": "string"
        }
      ],
      "stateMutability": "nonpayable",
      "type": "constructor"
    },
    {
      "anonymous": false,
      "inputs": [
        {
          "indexed": true,
          "internalType": "address",
          "name": "owner",
          "type": "address"
        },
        {
          "indexed": true,
          "internalType": "address",
          "name": "approved",
          "type": "address"
        },
        {
          "indexed": true,
          "internalType": "uint256",
          "name": "tokenId",
          "type": "uint256"
        }
      ],
      "name": "Approval",
      "type": "event"
    },
    {
      "anonymous": false,
      "inputs": [
        {
          "indexed": true,
          "internalType": "address",
          "name": "owner",
          "type": "address"
        },
        {
          "indexed": true,
          "internalType": "address",
          "name": "operator",
          "type": "address"
        },
        {
          "indexed": false,
          "internalType": "bool",
          "name": "approved",
          "type": "bool"
        }
      ],
      "name": "ApprovalForAll",
      "type": "event"
    },
    {
      "anonymous": false,
      "inputs": [
        {
          "indexed": true,
          "internalType": "uint256",
          "name": "tokenId",
          "type": "uint256"
        },
        {
          "indexed": true,
          "internalType": "address",
          "name": "owner",
          "type": "address"
        }
      ],
      "name": "NFogOpen",
      "type": "event"
    },
    {
      "anonymous": false,
      "inputs": [
        {
          "indexed": true,
          "internalType": "address",
          "name": "from",
          "type": "address"
        },
        {
          "indexed": true,
          "internalType": "address",
          "name": "to",
          "type": "address"
        },
        {
          "indexed": true,
          "internalType": "uint256",
          "name": "tokenId",
          "type": "uint256"
        }
      ],
      "name": "Transfer",
      "type": "event"
    },
    {
      "inputs": [
        {
          "internalType": "address",
          "name": "to",
          "type": "address"
        },
        {
          "internalType": "uint256",
          "name": "tokenId",
          "type": "uint256"
        }
      ],
      "name": "approve",
      "outputs": [],
      "stateMutability": "nonpayable",
      "type": "function"
    },
    {
      "inputs": [
        {
          "internalType": "address",
          "name": "owner",
          "type": "address"
        }
      ],
      "name": "balanceOf",
      "outputs": [
        {
          "internalType": "uint256",
          "name": "",
          "type": "uint256"
        }
      ],
      "stateMutability": "view",
      "type": "function"
    },
    {
      "inputs": [
        {
          "internalType": "uint256",
          "name": "tokenId",
          "type": "uint256"
        }
      ],
      "name": "getApproved",
      "outputs": [
        {
          "internalType": "address",
          "name": "",
          "type": "address"
        }
      ],
      "stateMutability": "view",
      "type": "function"
    },
    {
      "inputs": [
        {
          "internalType": "address",
          "name": "owner",
          "type": "address"
        },
        {
          "internalType": "address",
          "name": "operator",
          "type": "address"
        }
      ],
      "name": "isApprovedForAll",
      "outputs": [
        {
          "internalType": "bool",
          "name": "",
          "type": "bool"
        }
      ],
      "stateMutability": "view",
      "type": "function"
    },
    {
      "inputs": [
        {
          "internalType": "uint256",
          "name": "_tokenId",
          "type": "uint256"
        }
      ],
      "name": "isNFogOpen",
      "outputs": [
        {
          "internalType": "bool",
          "name": "",
          "type": "bool"
        }
      ],
      "stateMutability": "view",
      "type": "function"
    },
    {
      "inputs": [
        {
          "internalType": "string",
          "name": "_tokenURI",
          "type": "string"
        },
        {
          "internalType": "string",
          "name": "secret",
          "type": "string"
        }
      ],
      "name": "mint",
      "outputs": [
        {
          "internalType": "uint256",
          "name": "",
          "type": "uint256"
        }
      ],
      "stateMutability": "nonpayable",
      "type": "function"
    },
    {
      "inputs": [],
      "name": "name",
      "outputs": [
        {
          "internalType": "string",
          "name": "",
          "type": "string"
        }
      ],
      "stateMutability": "view",
      "type": "function"
    },
    {
      "inputs": [
        {
          "internalType": "uint256",
          "name": "_tokenId",
          "type": "uint256"
        }
      ],
      "name": "openNFog",
      "outputs": [],
      "stateMutability": "nonpayable",
      "type": "function"
    },
    {
      "inputs": [
        {
          "internalType": "uint256",
          "name": "tokenId",
          "type": "uint256"
        }
      ],
      "name": "ownerOf",
      "outputs": [
        {
          "internalType": "address",
          "name": "",
          "type": "address"
        }
      ],
      "stateMutability": "view",
      "type": "function"
    },
    {
      "inputs": [
        {
          "internalType": "address",
          "name": "from",
          "type": "address"
        },
        {
          "internalType": "address",
          "name": "to",
          "type": "address"
        },
        {
          "internalType": "uint256",
          "name": "tokenId",
          "type": "uint256"
        }
      ],
      "name": "safeTransferFrom",
      "outputs": [],
      "stateMutability": "nonpayable",
      "type": "function"
    },
    {
      "inputs": [
        {
          "internalType": "address",
          "name": "from",
          "type": "address"
        },
        {
          "internalType": "address",
          "name": "to",
          "type": "address"
        },
        {
          "internalType": "uint256",
          "name": "tokenId",
          "type": "uint256"
        },
        {
          "internalType": "bytes",
          "name": "_data",
          "type": "bytes"
        }
      ],
      "name": "safeTransferFrom",
      "outputs": [],
      "stateMutability": "nonpayable",
      "type": "function"
    },
    {
      "inputs": [
        {
          "internalType": "address",
          "name": "operator",
          "type": "address"
        },
        {
          "internalType": "bool",
          "name": "approved",
          "type": "bool"
        }
      ],
      "name": "setApprovalForAll",
      "outputs": [],
      "stateMutability": "nonpayable",
      "type": "function"
    },
    {
      "inputs": [
        {
          "internalType": "bytes4",
          "name": "interfaceId",
          "type": "bytes4"
        }
      ],
      "name": "supportsInterface",
      "outputs": [
        {
          "internalType": "bool",
          "name": "",
          "type": "bool"
        }
      ],
      "stateMutability": "view",
      "type": "function"
    },
    {
      "inputs": [],
      "name": "symbol",
      "outputs": [
        {
          "internalType": "string",
          "name": "",
          "type": "string"
        }
      ],
      "stateMutability": "view",
      "type": "function"
    },
    {
      "inputs": [],
      "name": "tokenCount",
      "outputs": [
        {
          "internalType": "uint256",
          "name": "_value",
          "type": "uint256"
        }
      ],
      "stateMutability": "view",
      "type": "function"
    },
    {
      "inputs": [
        {
          "internalType": "uint256",
          "name": "tokenId",
          "type": "uint256"
        }
      ],
      "name": "tokenURI",
      "outputs": [
        {
          "internalType": "string",
          "name": "",
          "type": "string"
        }
      ],
      "stateMutability": "view",
      "type": "function"
    },
    {
      "inputs": [
        {
          "internalType": "address",
          "name": "from",
          "type": "address"
        },
        {
          "internalType": "address",
          "name": "to",
          "type": "address"
        },
        {
          "internalType": "uint256",
          "name": "tokenId",
          "type": "uint256"
        }
      ],
      "name": "transferFrom",
      "outputs": [],
      "stateMutability": "nonpayable",
      "type": "function"
    },
    {
      "inputs": [
        {
          "internalType": "uint256",
          "name": "_tokenId",
          "type": "uint256"
        }
      ],
      "name": "viewNFog",
      "outputs": [
        {
          "internalType": "string",
          "name": "",
          "type": "string"
        }
      ],
      "stateMutability": "view",
      "type": "function"
    }
  ],
  "transactionHash": "0xd8e5126df41cf5e1c7d096f23e1315a17cf1cddd23748d5f44c4cac75783429e",
  "args": [
    "NFogCollection",
    "NFOG"
  ],
  "solcInputHash": "4462451d58fffb6a10f63045361ea729",
  "bytecode": "0x60806040523480156200001157600080fd5b506040516200350d3803806200350d833981810160405281019062000037919062000197565b818181600090805190602001906200005192919062000075565b5080600190805190602001906200006a92919062000075565b50505050506200033b565b8280546200008390620002a7565b90600052602060002090601f016020900481019282620000a75760008555620000f3565b82601f10620000c257805160ff1916838001178555620000f3565b82800160010185558215620000f3579182015b82811115620000f2578251825591602001919060010190620000d5565b5b50905062000102919062000106565b5090565b5b808211156200012157600081600090555060010162000107565b5090565b60006200013c62000136846200023e565b6200020a565b9050828152602081018484840111156200015557600080fd5b6200016284828562000271565b509392505050565b600082601f8301126200017c57600080fd5b81516200018e84826020860162000125565b91505092915050565b60008060408385031215620001ab57600080fd5b600083015167ffffffffffffffff811115620001c657600080fd5b620001d4858286016200016a565b925050602083015167ffffffffffffffff811115620001f257600080fd5b62000200858286016200016a565b9150509250929050565b6000604051905081810181811067ffffffffffffffff821117156200023457620002336200030c565b5b8060405250919050565b600067ffffffffffffffff8211156200025c576200025b6200030c565b5b601f19601f8301169050602081019050919050565b60005b838110156200029157808201518184015260208101905062000274565b83811115620002a1576000848401525b50505050565b60006002820490506001821680620002c057607f821691505b60208210811415620002d757620002d6620002dd565b5b50919050565b7f4e487b7100000000000000000000000000000000000000000000000000000000600052602260045260246000fd5b7f4e487b7100000000000000000000000000000000000000000000000000000000600052604160045260246000fd5b6131c2806200034b6000396000f3fe608060405234801561001057600080fd5b50600436106101165760003560e01c80638aa0fdad116100a2578063b88d4fde11610071578063b88d4fde14610305578063c4c2f06114610321578063c87b56dd1461033d578063dea56d4d1461036d578063e985e9c51461039d57610116565b80638aa0fdad1461027d57806395d89b41146102ad5780639f181b5e146102cb578063a22cb465146102e957610116565b806323b872dd116100e957806323b872dd146101b557806342842e0e146101d1578063619bc0b3146101ed5780636352211e1461021d57806370a082311461024d57610116565b806301ffc9a71461011b57806306fdde031461014b578063081812fc14610169578063095ea7b314610199575b600080fd5b610135600480360381019061013091906120e4565b6103cd565b6040516101429190612a7a565b60405180910390f35b6101536104af565b6040516101609190612a95565b60405180910390f35b610183600480360381019061017e91906121a2565b610541565b6040516101909190612a13565b60405180910390f35b6101b360048036038101906101ae91906120a8565b6105c6565b005b6101cf60048036038101906101ca9190611fa2565b6106de565b005b6101eb60048036038101906101e69190611fa2565b61073e565b005b610207600480360381019061020291906121a2565b61075e565b6040516102149190612a95565b60405180910390f35b610237600480360381019061023291906121a2565b6108cd565b6040516102449190612a13565b60405180910390f35b61026760048036038101906102629190611f3d565b61097f565b6040516102749190612d57565b60405180910390f35b61029760048036038101906102929190612136565b610a37565b6040516102a49190612d57565b60405180910390f35b6102b5610abd565b6040516102c29190612a95565b60405180910390f35b6102d3610b4f565b6040516102e09190612d57565b60405180910390f35b61030360048036038101906102fe919061206c565b610b5b565b005b61031f600480360381019061031a9190611ff1565b610cdc565b005b61033b600480360381019061033691906121a2565b610d3e565b005b610357600480360381019061035291906121a2565b610e7b565b6040516103649190612a95565b60405180910390f35b610387600480360381019061038291906121a2565b610fcd565b6040516103949190612a7a565b60405180910390f35b6103b760048036038101906103b29190611f66565b611049565b6040516103c49190612a7a565b60405180910390f35b60007f80ac58cd000000000000000000000000000000000000000000000000000000007bffffffffffffffffffffffffffffffffffffffffffffffffffffffff1916827bffffffffffffffffffffffffffffffffffffffffffffffffffffffff1916148061049857507f5b5e139f000000000000000000000000000000000000000000000000000000007bffffffffffffffffffffffffffffffffffffffffffffffffffffffff1916827bffffffffffffffffffffffffffffffffffffffffffffffffffffffff1916145b806104a857506104a7826110dd565b5b9050919050565b6060600080546104be90612fb7565b80601f01602080910402602001604051908101604052809291908181526020018280546104ea90612fb7565b80156105375780601f1061050c57610100808354040283529160200191610537565b820191906000526020600020905b81548152906001019060200180831161051a57829003601f168201915b5050505050905090565b600061054c82611147565b61058b576040517f08c379a000000000000000000000000000000000000000000000000000000000815260040161058290612c77565b60405180910390fd5b6004600083815260200190815260200160002060009054906101000a900473ffffffffffffffffffffffffffffffffffffffff169050919050565b60006105d1826108cd565b90508073ffffffffffffffffffffffffffffffffffffffff168373ffffffffffffffffffffffffffffffffffffffff161415610642576040517f08c379a000000000000000000000000000000000000000000000000000000000815260040161063990612cf7565b60405180910390fd5b8073ffffffffffffffffffffffffffffffffffffffff166106616111b3565b73ffffffffffffffffffffffffffffffffffffffff161480610690575061068f8161068a6111b3565b611049565b5b6106cf576040517f08c379a00000000000000000000000000000000000000000000000000000000081526004016106c690612b97565b60405180910390fd5b6106d983836111bb565b505050565b6106ef6106e96111b3565b82611274565b61072e576040517f08c379a000000000000000000000000000000000000000000000000000000000815260040161072590612d17565b60405180910390fd5b610739838383611352565b505050565b61075983838360405180602001604052806000815250610cdc565b505050565b60608161076a816108cd565b73ffffffffffffffffffffffffffffffffffffffff163373ffffffffffffffffffffffffffffffffffffffff16146107d7576040517f08c379a00000000000000000000000000000000000000000000000000000000081526004016107ce90612c97565b60405180910390fd5b600115156107e484610fcd565b151514610826576040517f08c379a000000000000000000000000000000000000000000000000000000000815260040161081d90612af7565b60405180910390fd5b60086000848152602001908152602001600020600001805461084790612fb7565b80601f016020809104026020016040519081016040528092919081815260200182805461087390612fb7565b80156108c05780601f10610895576101008083540402835291602001916108c0565b820191906000526020600020905b8154815290600101906020018083116108a357829003601f168201915b5050505050915050919050565b6000806002600084815260200190815260200160002060009054906101000a900473ffffffffffffffffffffffffffffffffffffffff169050600073ffffffffffffffffffffffffffffffffffffffff168173ffffffffffffffffffffffffffffffffffffffff161415610976576040517f08c379a000000000000000000000000000000000000000000000000000000000815260040161096d90612bd7565b60405180910390fd5b80915050919050565b60008073ffffffffffffffffffffffffffffffffffffffff168273ffffffffffffffffffffffffffffffffffffffff1614156109f0576040517f08c379a00000000000000000000000000000000000000000000000000000000081526004016109e790612bb7565b60405180910390fd5b600360008373ffffffffffffffffffffffffffffffffffffffff1673ffffffffffffffffffffffffffffffffffffffff168152602001908152602001600020549050919050565b60008083511415610a7d576040517f08c379a0000000000000000000000000000000000000000000000000000000008152600401610a7490612d37565b60405180910390fd5b610a8760076115ae565b6000610a9360076115c4565b9050610a9f33826115d2565b610aa981856115f0565b610ab38184611664565b8091505092915050565b606060018054610acc90612fb7565b80601f0160208091040260200160405190810160405280929190818152602001828054610af890612fb7565b8015610b455780601f10610b1a57610100808354040283529160200191610b45565b820191906000526020600020905b815481529060010190602001808311610b2857829003601f168201915b5050505050905090565b60078060000154905081565b610b636111b3565b73ffffffffffffffffffffffffffffffffffffffff168273ffffffffffffffffffffffffffffffffffffffff161415610bd1576040517f08c379a0000000000000000000000000000000000000000000000000000000008152600401610bc890612b37565b60405180910390fd5b8060056000610bde6111b3565b73ffffffffffffffffffffffffffffffffffffffff1673ffffffffffffffffffffffffffffffffffffffff16815260200190815260200160002060008473ffffffffffffffffffffffffffffffffffffffff1673ffffffffffffffffffffffffffffffffffffffff16815260200190815260200160002060006101000a81548160ff0219169083151502179055508173ffffffffffffffffffffffffffffffffffffffff16610c8b6111b3565b73ffffffffffffffffffffffffffffffffffffffff167f17307eab39ab6107e8899845ad3d59bd9653f200f220920489ca2b5937696c3183604051610cd09190612a7a565b60405180910390a35050565b610ced610ce76111b3565b83611274565b610d2c576040517f08c379a0000000000000000000000000000000000000000000000000000000008152600401610d2390612d17565b60405180910390fd5b610d38848484846116c2565b50505050565b80610d48816108cd565b73ffffffffffffffffffffffffffffffffffffffff163373ffffffffffffffffffffffffffffffffffffffff1614610db5576040517f08c379a0000000000000000000000000000000000000000000000000000000008152600401610dac90612c97565b60405180910390fd5b60001515610dc283610fcd565b151514610e04576040517f08c379a0000000000000000000000000000000000000000000000000000000008152600401610dfb90612c17565b60405180910390fd5b60016008600084815260200190815260200160002060010160006101000a81548160ff0219169083151502179055503373ffffffffffffffffffffffffffffffffffffffff16827f28ac9874cf18ad83365cdfb3994e7a707646927b6ac47b97858d1ad560b372de60405160405180910390a35050565b6060610e8682611147565b610ec5576040517f08c379a0000000000000000000000000000000000000000000000000000000008152600401610ebc90612c57565b60405180910390fd5b6000600660008481526020019081526020016000208054610ee590612fb7565b80601f0160208091040260200160405190810160405280929190818152602001828054610f1190612fb7565b8015610f5e5780601f10610f3357610100808354040283529160200191610f5e565b820191906000526020600020905b815481529060010190602001808311610f4157829003601f168201915b505050505090506000610f6f61171e565b9050600081511415610f85578192505050610fc8565b600082511115610fba578082604051602001610fa29291906129ef565b60405160208183030381529060405292505050610fc8565b610fc384611735565b925050505b919050565b600060011515610fdc83611147565b15151461101e576040517f08c379a000000000000000000000000000000000000000000000000000000000815260040161101590612b57565b60405180910390fd5b6008600083815260200190815260200160002060010160009054906101000a900460ff169050919050565b6000600560008473ffffffffffffffffffffffffffffffffffffffff1673ffffffffffffffffffffffffffffffffffffffff16815260200190815260200160002060008373ffffffffffffffffffffffffffffffffffffffff1673ffffffffffffffffffffffffffffffffffffffff16815260200190815260200160002060009054906101000a900460ff16905092915050565b60007f01ffc9a7000000000000000000000000000000000000000000000000000000007bffffffffffffffffffffffffffffffffffffffffffffffffffffffff1916827bffffffffffffffffffffffffffffffffffffffffffffffffffffffff1916149050919050565b60008073ffffffffffffffffffffffffffffffffffffffff166002600084815260200190815260200160002060009054906101000a900473ffffffffffffffffffffffffffffffffffffffff1673ffffffffffffffffffffffffffffffffffffffff1614159050919050565b600033905090565b816004600083815260200190815260200160002060006101000a81548173ffffffffffffffffffffffffffffffffffffffff021916908373ffffffffffffffffffffffffffffffffffffffff160217905550808273ffffffffffffffffffffffffffffffffffffffff1661122e836108cd565b73ffffffffffffffffffffffffffffffffffffffff167f8c5be1e5ebec7d5bd14f71427d1e84f3dd0314c0f7b2291e5b200ac8c7c3b92560405160405180910390a45050565b600061127f82611147565b6112be576040517f08c379a00000000000000000000000000000000000000000000000000000000081526004016112b590612b77565b60405180910390fd5b60006112c9836108cd565b90508073ffffffffffffffffffffffffffffffffffffffff168473ffffffffffffffffffffffffffffffffffffffff16148061133857508373ffffffffffffffffffffffffffffffffffffffff1661132084610541565b73ffffffffffffffffffffffffffffffffffffffff16145b8061134957506113488185611049565b5b91505092915050565b8273ffffffffffffffffffffffffffffffffffffffff16611372826108cd565b73ffffffffffffffffffffffffffffffffffffffff16146113c8576040517f08c379a00000000000000000000000000000000000000000000000000000000081526004016113bf90612cb7565b60405180910390fd5b600073ffffffffffffffffffffffffffffffffffffffff168273ffffffffffffffffffffffffffffffffffffffff161415611438576040517f08c379a000000000000000000000000000000000000000000000000000000000815260040161142f90612b17565b60405180910390fd5b6114438383836117dc565b61144e6000826111bb565b6001600360008573ffffffffffffffffffffffffffffffffffffffff1673ffffffffffffffffffffffffffffffffffffffff168152602001908152602001600020600082825461149e9190612ecd565b925050819055506001600360008473ffffffffffffffffffffffffffffffffffffffff1673ffffffffffffffffffffffffffffffffffffffff16815260200190815260200160002060008282546114f59190612e46565b92505081905550816002600083815260200190815260200160002060006101000a81548173ffffffffffffffffffffffffffffffffffffffff021916908373ffffffffffffffffffffffffffffffffffffffff160217905550808273ffffffffffffffffffffffffffffffffffffffff168473ffffffffffffffffffffffffffffffffffffffff167fddf252ad1be2c89b69c2b068fc378daa952ba7f163c4a11628f55a4df523b3ef60405160405180910390a4505050565b6001816000016000828254019250508190555050565b600081600001549050919050565b6115ec8282604051806020016040528060008152506117e1565b5050565b6115f982611147565b611638576040517f08c379a000000000000000000000000000000000000000000000000000000000815260040161162f90612bf7565b60405180910390fd5b8060066000848152602001908152602001600020908051906020019061165f929190611d61565b505050565b8060086000848152602001908152602001600020600001908051906020019061168e929190611d61565b5060006008600084815260200190815260200160002060010160006101000a81548160ff0219169083151502179055505050565b6116cd848484611352565b6116d98484848461183c565b611718576040517f08c379a000000000000000000000000000000000000000000000000000000000815260040161170f90612ab7565b60405180910390fd5b50505050565b606060405180602001604052806000815250905090565b606061174082611147565b61177f576040517f08c379a000000000000000000000000000000000000000000000000000000000815260040161177690612cd7565b60405180910390fd5b600061178961171e565b905060008151116117a957604051806020016040528060008152506117d4565b806117b3846119d3565b6040516020016117c49291906129ef565b6040516020818303038152906040525b915050919050565b505050565b6117eb8383611b80565b6117f8600084848461183c565b611837576040517f08c379a000000000000000000000000000000000000000000000000000000000815260040161182e90612ab7565b60405180910390fd5b505050565b600061185d8473ffffffffffffffffffffffffffffffffffffffff16611d4e565b156119c6578373ffffffffffffffffffffffffffffffffffffffff1663150b7a026118866111b3565b8786866040518563ffffffff1660e01b81526004016118a89493929190612a2e565b602060405180830381600087803b1580156118c257600080fd5b505af19250505080156118f357506040513d601f19601f820116820180604052508101906118f0919061210d565b60015b611976573d8060008114611923576040519150601f19603f3d011682016040523d82523d6000602084013e611928565b606091505b5060008151141561196e576040517f08c379a000000000000000000000000000000000000000000000000000000000815260040161196590612ab7565b60405180910390fd5b805181602001fd5b63150b7a0260e01b7bffffffffffffffffffffffffffffffffffffffffffffffffffffffff1916817bffffffffffffffffffffffffffffffffffffffffffffffffffffffff1916149150506119cb565b600190505b949350505050565b60606000821415611a1b576040518060400160405280600181526020017f30000000000000000000000000000000000000000000000000000000000000008152509050611b7b565b600082905060005b60008214611a4d578080611a3690612fe9565b915050600a82611a469190612e9c565b9150611a23565b60008167ffffffffffffffff811115611a8f577f4e487b7100000000000000000000000000000000000000000000000000000000600052604160045260246000fd5b6040519080825280601f01601f191660200182016040528015611ac15781602001600182028036833780820191505090505b5090505b60008514611b7457600182611ada9190612ecd565b9150600a85611ae99190613032565b6030611af59190612e46565b60f81b818381518110611b31577f4e487b7100000000000000000000000000000000000000000000000000000000600052603260045260246000fd5b60200101907effffffffffffffffffffffffffffffffffffffffffffffffffffffffffffff1916908160001a905350600a85611b6d9190612e9c565b9450611ac5565b8093505050505b919050565b600073ffffffffffffffffffffffffffffffffffffffff168273ffffffffffffffffffffffffffffffffffffffff161415611bf0576040517f08c379a0000000000000000000000000000000000000000000000000000000008152600401611be790612c37565b60405180910390fd5b611bf981611147565b15611c39576040517f08c379a0000000000000000000000000000000000000000000000000000000008152600401611c3090612ad7565b60405180910390fd5b611c45600083836117dc565b6001600360008473ffffffffffffffffffffffffffffffffffffffff1673ffffffffffffffffffffffffffffffffffffffff1681526020019081526020016000206000828254611c959190612e46565b92505081905550816002600083815260200190815260200160002060006101000a81548173ffffffffffffffffffffffffffffffffffffffff021916908373ffffffffffffffffffffffffffffffffffffffff160217905550808273ffffffffffffffffffffffffffffffffffffffff16600073ffffffffffffffffffffffffffffffffffffffff167fddf252ad1be2c89b69c2b068fc378daa952ba7f163c4a11628f55a4df523b3ef60405160405180910390a45050565b600080823b905060008111915050919050565b828054611d6d90612fb7565b90600052602060002090601f016020900481019282611d8f5760008555611dd6565b82601f10611da857805160ff1916838001178555611dd6565b82800160010185558215611dd6579182015b82811115611dd5578251825591602001919060010190611dba565b5b509050611de39190611de7565b5090565b5b80821115611e00576000816000905550600101611de8565b5090565b6000611e17611e1284612da3565b612d72565b905082815260208101848484011115611e2f57600080fd5b611e3a848285612f75565b509392505050565b6000611e55611e5084612dd3565b612d72565b905082815260208101848484011115611e6d57600080fd5b611e78848285612f75565b509392505050565b600081359050611e8f81613130565b92915050565b600081359050611ea481613147565b92915050565b600081359050611eb98161315e565b92915050565b600081519050611ece8161315e565b92915050565b600082601f830112611ee557600080fd5b8135611ef5848260208601611e04565b91505092915050565b600082601f830112611f0f57600080fd5b8135611f1f848260208601611e42565b91505092915050565b600081359050611f3781613175565b92915050565b600060208284031215611f4f57600080fd5b6000611f5d84828501611e80565b91505092915050565b60008060408385031215611f7957600080fd5b6000611f8785828601611e80565b9250506020611f9885828601611e80565b9150509250929050565b600080600060608486031215611fb757600080fd5b6000611fc586828701611e80565b9350506020611fd686828701611e80565b9250506040611fe786828701611f28565b9150509250925092565b6000806000806080858703121561200757600080fd5b600061201587828801611e80565b945050602061202687828801611e80565b935050604061203787828801611f28565b925050606085013567ffffffffffffffff81111561205457600080fd5b61206087828801611ed4565b91505092959194509250565b6000806040838503121561207f57600080fd5b600061208d85828601611e80565b925050602061209e85828601611e95565b9150509250929050565b600080604083850312156120bb57600080fd5b60006120c985828601611e80565b92505060206120da85828601611f28565b9150509250929050565b6000602082840312156120f657600080fd5b600061210484828501611eaa565b91505092915050565b60006020828403121561211f57600080fd5b600061212d84828501611ebf565b91505092915050565b6000806040838503121561214957600080fd5b600083013567ffffffffffffffff81111561216357600080fd5b61216f85828601611efe565b925050602083013567ffffffffffffffff81111561218c57600080fd5b61219885828601611efe565b9150509250929050565b6000602082840312156121b457600080fd5b60006121c284828501611f28565b91505092915050565b6121d481612f01565b82525050565b6121e381612f13565b82525050565b60006121f482612e03565b6121fe8185612e19565b935061220e818560208601612f84565b6122178161311f565b840191505092915050565b600061222d82612e0e565b6122378185612e2a565b9350612247818560208601612f84565b6122508161311f565b840191505092915050565b600061226682612e0e565b6122708185612e3b565b9350612280818560208601612f84565b80840191505092915050565b6000612299603283612e2a565b91507f4552433732313a207472616e7366657220746f206e6f6e20455243373231526560008301527f63656976657220696d706c656d656e74657200000000000000000000000000006020830152604082019050919050565b60006122ff601c83612e2a565b91507f4552433732313a20746f6b656e20616c7265616479206d696e746564000000006000830152602082019050919050565b600061233f601083612e2a565b91507f4e466f67206973206e6f74206f70656e000000000000000000000000000000006000830152602082019050919050565b600061237f602483612e2a565b91507f4552433732313a207472616e7366657220746f20746865207a65726f2061646460008301527f72657373000000000000000000000000000000000000000000000000000000006020830152604082019050919050565b60006123e5601983612e2a565b91507f4552433732313a20617070726f766520746f2063616c6c6572000000000000006000830152602082019050919050565b6000612425602883612e2a565b91507f4e464f473a2069734f70656e20717565727920666f72206e6f6e65786973746560008301527f6e7420746f6b656e0000000000000000000000000000000000000000000000006020830152604082019050919050565b600061248b602c83612e2a565b91507f4552433732313a206f70657261746f7220717565727920666f72206e6f6e657860008301527f697374656e7420746f6b656e00000000000000000000000000000000000000006020830152604082019050919050565b60006124f1603883612e2a565b91507f4552433732313a20617070726f76652063616c6c6572206973206e6f74206f7760008301527f6e6572206e6f7220617070726f76656420666f7220616c6c00000000000000006020830152604082019050919050565b6000612557602a83612e2a565b91507f4552433732313a2062616c616e636520717565727920666f7220746865207a6560008301527f726f2061646472657373000000000000000000000000000000000000000000006020830152604082019050919050565b60006125bd602983612e2a565b91507f4552433732313a206f776e657220717565727920666f72206e6f6e657869737460008301527f656e7420746f6b656e00000000000000000000000000000000000000000000006020830152604082019050919050565b6000612623602e83612e2a565b91507f45524337323155524953746f726167653a2055524920736574206f66206e6f6e60008301527f6578697374656e7420746f6b656e0000000000000000000000000000000000006020830152604082019050919050565b6000612689601483612e2a565b91507f4e466f6720697320616c7265616479206f70656e0000000000000000000000006000830152602082019050919050565b60006126c9602083612e2a565b91507f4552433732313a206d696e7420746f20746865207a65726f20616464726573736000830152602082019050919050565b6000612709603183612e2a565b91507f45524337323155524953746f726167653a2055524920717565727920666f722060008301527f6e6f6e6578697374656e7420746f6b656e0000000000000000000000000000006020830152604082019050919050565b600061276f602c83612e2a565b91507f4552433732313a20617070726f76656420717565727920666f72206e6f6e657860008301527f697374656e7420746f6b656e00000000000000000000000000000000000000006020830152604082019050919050565b60006127d5601d83612e2a565b91507f4f6e6c79204e466f67206f776e657220697320617574686f72697a65640000006000830152602082019050919050565b6000612815602983612e2a565b91507f4552433732313a207472616e73666572206f6620746f6b656e2074686174206960008301527f73206e6f74206f776e00000000000000000000000000000000000000000000006020830152604082019050919050565b600061287b602f83612e2a565b91507f4552433732314d657461646174613a2055524920717565727920666f72206e6f60008301527f6e6578697374656e7420746f6b656e00000000000000000000000000000000006020830152604082019050919050565b60006128e1602183612e2a565b91507f4552433732313a20617070726f76616c20746f2063757272656e74206f776e6560008301527f72000000000000000000000000000000000000000000000000000000000000006020830152604082019050919050565b6000612947603183612e2a565b91507f4552433732313a207472616e736665722063616c6c6572206973206e6f74206f60008301527f776e6572206e6f7220617070726f7665640000000000000000000000000000006020830152604082019050919050565b60006129ad601983612e2a565b91507f546f6b656e205552492063616e6e6f7420626520656d707479000000000000006000830152602082019050919050565b6129e981612f6b565b82525050565b60006129fb828561225b565b9150612a07828461225b565b91508190509392505050565b6000602082019050612a2860008301846121cb565b92915050565b6000608082019050612a4360008301876121cb565b612a5060208301866121cb565b612a5d60408301856129e0565b8181036060830152612a6f81846121e9565b905095945050505050565b6000602082019050612a8f60008301846121da565b92915050565b60006020820190508181036000830152612aaf8184612222565b905092915050565b60006020820190508181036000830152612ad08161228c565b9050919050565b60006020820190508181036000830152612af0816122f2565b9050919050565b60006020820190508181036000830152612b1081612332565b9050919050565b60006020820190508181036000830152612b3081612372565b9050919050565b60006020820190508181036000830152612b50816123d8565b9050919050565b60006020820190508181036000830152612b7081612418565b9050919050565b60006020820190508181036000830152612b908161247e565b9050919050565b60006020820190508181036000830152612bb0816124e4565b9050919050565b60006020820190508181036000830152612bd08161254a565b9050919050565b60006020820190508181036000830152612bf0816125b0565b9050919050565b60006020820190508181036000830152612c1081612616565b9050919050565b60006020820190508181036000830152612c308161267c565b9050919050565b60006020820190508181036000830152612c50816126bc565b9050919050565b60006020820190508181036000830152612c70816126fc565b9050919050565b60006020820190508181036000830152612c9081612762565b9050919050565b60006020820190508181036000830152612cb0816127c8565b9050919050565b60006020820190508181036000830152612cd081612808565b9050919050565b60006020820190508181036000830152612cf08161286e565b9050919050565b60006020820190508181036000830152612d10816128d4565b9050919050565b60006020820190508181036000830152612d308161293a565b9050919050565b60006020820190508181036000830152612d50816129a0565b9050919050565b6000602082019050612d6c60008301846129e0565b92915050565b6000604051905081810181811067ffffffffffffffff82111715612d9957612d986130f0565b5b8060405250919050565b600067ffffffffffffffff821115612dbe57612dbd6130f0565b5b601f19601f8301169050602081019050919050565b600067ffffffffffffffff821115612dee57612ded6130f0565b5b601f19601f8301169050602081019050919050565b600081519050919050565b600081519050919050565b600082825260208201905092915050565b600082825260208201905092915050565b600081905092915050565b6000612e5182612f6b565b9150612e5c83612f6b565b9250827fffffffffffffffffffffffffffffffffffffffffffffffffffffffffffffffff03821115612e9157612e90613063565b5b828201905092915050565b6000612ea782612f6b565b9150612eb283612f6b565b925082612ec257612ec1613092565b5b828204905092915050565b6000612ed882612f6b565b9150612ee383612f6b565b925082821015612ef657612ef5613063565b5b828203905092915050565b6000612f0c82612f4b565b9050919050565b60008115159050919050565b60007fffffffff0000000000000000000000000000000000000000000000000000000082169050919050565b600073ffffffffffffffffffffffffffffffffffffffff82169050919050565b6000819050919050565b82818337600083830152505050565b60005b83811015612fa2578082015181840152602081019050612f87565b83811115612fb1576000848401525b50505050565b60006002820490506001821680612fcf57607f821691505b60208210811415612fe357612fe26130c1565b5b50919050565b6000612ff482612f6b565b91507fffffffffffffffffffffffffffffffffffffffffffffffffffffffffffffffff82141561302757613026613063565b5b600182019050919050565b600061303d82612f6b565b915061304883612f6b565b92508261305857613057613092565b5b828206905092915050565b7f4e487b7100000000000000000000000000000000000000000000000000000000600052601160045260246000fd5b7f4e487b7100000000000000000000000000000000000000000000000000000000600052601260045260246000fd5b7f4e487b7100000000000000000000000000000000000000000000000000000000600052602260045260246000fd5b7f4e487b7100000000000000000000000000000000000000000000000000000000600052604160045260246000fd5b6000601f19601f8301169050919050565b61313981612f01565b811461314457600080fd5b50565b61315081612f13565b811461315b57600080fd5b50565b61316781612f1f565b811461317257600080fd5b50565b61317e81612f6b565b811461318957600080fd5b5056fea26469706673582212208ef90a5fd8b54d662a0d5414fef2acd5ff5d869f68c255b8f3a1dc0f24f2cabb64736f6c63430008000033",
  "devdoc": {
    "kind": "dev",
    "methods": {
      "approve(address,uint256)": {
        "details": "See {IERC721-approve}."
      },
      "balanceOf(address)": {
        "details": "See {IERC721-balanceOf}."
      },
      "getApproved(uint256)": {
        "details": "See {IERC721-getApproved}."
      },
      "isApprovedForAll(address,address)": {
        "details": "See {IERC721-isApprovedForAll}."
      },
      "name()": {
        "details": "See {IERC721Metadata-name}."
      },
      "ownerOf(uint256)": {
        "details": "See {IERC721-ownerOf}."
      },
      "safeTransferFrom(address,address,uint256)": {
        "details": "See {IERC721-safeTransferFrom}."
      },
      "safeTransferFrom(address,address,uint256,bytes)": {
        "details": "See {IERC721-safeTransferFrom}."
      },
      "setApprovalForAll(address,bool)": {
        "details": "See {IERC721-setApprovalForAll}."
      },
      "supportsInterface(bytes4)": {
        "details": "See {IERC165-supportsInterface}."
      },
      "symbol()": {
        "details": "See {IERC721Metadata-symbol}."
      },
      "tokenURI(uint256)": {
        "details": "See {IERC721Metadata-tokenURI}."
      },
      "transferFrom(address,address,uint256)": {
        "details": "See {IERC721-transferFrom}."
      }
    },
    "version": 1
  },
  "userdoc": {
    "kind": "user",
    "methods": {},
    "version": 1
  },
  "storageLayout": {
    "storage": [
      {
        "astId": 25,
        "contract": "contracts/NFog.sol:NFog",
        "label": "_name",
        "offset": 0,
        "slot": "0",
        "type": "t_string_storage"
      },
      {
        "astId": 27,
        "contract": "contracts/NFog.sol:NFog",
        "label": "_symbol",
        "offset": 0,
        "slot": "1",
        "type": "t_string_storage"
      },
      {
        "astId": 31,
        "contract": "contracts/NFog.sol:NFog",
        "label": "_owners",
        "offset": 0,
        "slot": "2",
        "type": "t_mapping(t_uint256,t_address)"
      },
      {
        "astId": 35,
        "contract": "contracts/NFog.sol:NFog",
        "label": "_balances",
        "offset": 0,
        "slot": "3",
        "type": "t_mapping(t_address,t_uint256)"
      },
      {
        "astId": 39,
        "contract": "contracts/NFog.sol:NFog",
        "label": "_tokenApprovals",
        "offset": 0,
        "slot": "4",
        "type": "t_mapping(t_uint256,t_address)"
      },
      {
        "astId": 45,
        "contract": "contracts/NFog.sol:NFog",
        "label": "_operatorApprovals",
        "offset": 0,
        "slot": "5",
        "type": "t_mapping(t_address,t_mapping(t_address,t_bool))"
      },
      {
        "astId": 962,
        "contract": "contracts/NFog.sol:NFog",
        "label": "_tokenURIs",
        "offset": 0,
        "slot": "6",
        "type": "t_mapping(t_uint256,t_string_storage)"
      },
      {
        "astId": 1756,
        "contract": "contracts/NFog.sol:NFog",
        "label": "tokenCount",
        "offset": 0,
        "slot": "7",
        "type": "t_struct(Counter)1429_storage"
      },
      {
        "astId": 1766,
        "contract": "contracts/NFog.sol:NFog",
        "label": "_openingInfo",
        "offset": 0,
        "slot": "8",
        "type": "t_mapping(t_uint256,t_struct(OpeningInfo)1761_storage)"
      }
    ],
    "types": {
      "t_address": {
        "encoding": "inplace",
        "label": "address",
        "numberOfBytes": "20"
      },
      "t_bool": {
        "encoding": "inplace",
        "label": "bool",
        "numberOfBytes": "1"
      },
      "t_mapping(t_address,t_bool)": {
        "encoding": "mapping",
        "key": "t_address",
        "label": "mapping(address => bool)",
        "numberOfBytes": "32",
        "value": "t_bool"
      },
      "t_mapping(t_address,t_mapping(t_address,t_bool))": {
        "encoding": "mapping",
        "key": "t_address",
        "label": "mapping(address => mapping(address => bool))",
        "numberOfBytes": "32",
        "value": "t_mapping(t_address,t_bool)"
      },
      "t_mapping(t_address,t_uint256)": {
        "encoding": "mapping",
        "key": "t_address",
        "label": "mapping(address => uint256)",
        "numberOfBytes": "32",
        "value": "t_uint256"
      },
      "t_mapping(t_uint256,t_address)": {
        "encoding": "mapping",
        "key": "t_uint256",
        "label": "mapping(uint256 => address)",
        "numberOfBytes": "32",
        "value": "t_address"
      },
      "t_mapping(t_uint256,t_string_storage)": {
        "encoding": "mapping",
        "key": "t_uint256",
        "label": "mapping(uint256 => string)",
        "numberOfBytes": "32",
        "value": "t_string_storage"
      },
      "t_mapping(t_uint256,t_struct(OpeningInfo)1761_storage)": {
        "encoding": "mapping",
        "key": "t_uint256",
        "label": "mapping(uint256 => struct NFog.OpeningInfo)",
        "numberOfBytes": "32",
        "value": "t_struct(OpeningInfo)1761_storage"
      },
      "t_string_storage": {
        "encoding": "bytes",
        "label": "string",
        "numberOfBytes": "32"
      },
      "t_struct(Counter)1429_storage": {
        "encoding": "inplace",
        "label": "struct Counters.Counter",
        "members": [
          {
            "astId": 1428,
            "contract": "contracts/NFog.sol:NFog",
            "label": "_value",
            "offset": 0,
            "slot": "0",
            "type": "t_uint256"
          }
        ],
        "numberOfBytes": "32"
      },
      "t_struct(OpeningInfo)1761_storage": {
        "encoding": "inplace",
        "label": "struct NFog.OpeningInfo",
        "members": [
          {
            "astId": 1758,
            "contract": "contracts/NFog.sol:NFog",
            "label": "secret",
            "offset": 0,
            "slot": "0",
            "type": "t_string_storage"
          },
          {
            "astId": 1760,
            "contract": "contracts/NFog.sol:NFog",
            "label": "isOpen",
            "offset": 0,
            "slot": "1",
            "type": "t_bool"
          }
        ],
        "numberOfBytes": "64"
      },
      "t_uint256": {
        "encoding": "inplace",
        "label": "uint256",
        "numberOfBytes": "32"
      }
    }
  }
}