{
  "_format": "hh-sol-artifact-1",
  "contractName": "NFog",
  "sourceName": "contracts/NFog.sol",
  "abi": [
    {
      "inputs": [
        {
          "internalType": "string",
          "name": "_name",
          "type": "string"
        },
        {
          "internalType": "string",
          "name": "_symbol",
          "type": "string"
        }
      ],
      "stateMutability": "nonpayable",
      "type": "constructor"
    },
    {
      "anonymous": false,
      "inputs": [
        {
          "indexed": true,
          "internalType": "address",
          "name": "owner",
          "type": "address"
        },
        {
          "indexed": true,
          "internalType": "address",
          "name": "approved",
          "type": "address"
        },
        {
          "indexed": true,
          "internalType": "uint256",
          "name": "tokenId",
          "type": "uint256"
        }
      ],
      "name": "Approval",
      "type": "event"
    },
    {
      "anonymous": false,
      "inputs": [
        {
          "indexed": true,
          "internalType": "address",
          "name": "owner",
          "type": "address"
        },
        {
          "indexed": true,
          "internalType": "address",
          "name": "operator",
          "type": "address"
        },
        {
          "indexed": false,
          "internalType": "bool",
          "name": "approved",
          "type": "bool"
        }
      ],
      "name": "ApprovalForAll",
      "type": "event"
    },
    {
      "anonymous": false,
      "inputs": [
        {
          "indexed": true,
          "internalType": "uint256",
          "name": "tokenId",
          "type": "uint256"
        },
        {
          "indexed": true,
          "internalType": "address",
          "name": "owner",
          "type": "address"
        }
      ],
      "name": "NFogOpenned",
      "type": "event"
    },
    {
      "anonymous": false,
      "inputs": [
        {
          "indexed": true,
          "internalType": "address",
          "name": "from",
          "type": "address"
        },
        {
          "indexed": true,
          "internalType": "address",
          "name": "to",
          "type": "address"
        },
        {
          "indexed": true,
          "internalType": "uint256",
          "name": "tokenId",
          "type": "uint256"
        }
      ],
      "name": "Transfer",
      "type": "event"
    },
    {
      "inputs": [
        {
          "internalType": "address",
          "name": "to",
          "type": "address"
        },
        {
          "internalType": "uint256",
          "name": "tokenId",
          "type": "uint256"
        }
      ],
      "name": "approve",
      "outputs": [],
      "stateMutability": "nonpayable",
      "type": "function"
    },
    {
      "inputs": [
        {
          "internalType": "address",
          "name": "owner",
          "type": "address"
        }
      ],
      "name": "balanceOf",
      "outputs": [
        {
          "internalType": "uint256",
          "name": "",
          "type": "uint256"
        }
      ],
      "stateMutability": "view",
      "type": "function"
    },
    {
      "inputs": [
        {
          "internalType": "uint256",
          "name": "tokenId",
          "type": "uint256"
        }
      ],
      "name": "getApproved",
      "outputs": [
        {
          "internalType": "address",
          "name": "",
          "type": "address"
        }
      ],
      "stateMutability": "view",
      "type": "function"
    },
    {
      "inputs": [
        {
          "internalType": "address",
          "name": "owner",
          "type": "address"
        },
        {
          "internalType": "address",
          "name": "operator",
          "type": "address"
        }
      ],
      "name": "isApprovedForAll",
      "outputs": [
        {
          "internalType": "bool",
          "name": "",
          "type": "bool"
        }
      ],
      "stateMutability": "view",
      "type": "function"
    },
    {
      "inputs": [
        {
          "internalType": "uint256",
          "name": "_tokenId",
          "type": "uint256"
        }
      ],
      "name": "isNFogOpen",
      "outputs": [
        {
          "internalType": "bool",
          "name": "",
          "type": "bool"
        }
      ],
      "stateMutability": "view",
      "type": "function"
    },
    {
      "inputs": [
        {
          "internalType": "string",
          "name": "tokenURI",
          "type": "string"
        },
        {
          "internalType": "string",
          "name": "secret",
          "type": "string"
        }
      ],
      "name": "mint",
      "outputs": [
        {
          "internalType": "uint256",
          "name": "",
          "type": "uint256"
        }
      ],
      "stateMutability": "nonpayable",
      "type": "function"
    },
    {
      "inputs": [],
      "name": "name",
      "outputs": [
        {
          "internalType": "string",
          "name": "",
          "type": "string"
        }
      ],
      "stateMutability": "view",
      "type": "function"
    },
    {
      "inputs": [
        {
          "internalType": "uint256",
          "name": "_tokenId",
          "type": "uint256"
        }
      ],
      "name": "openNFog",
      "outputs": [],
      "stateMutability": "nonpayable",
      "type": "function"
    },
    {
      "inputs": [
        {
          "internalType": "uint256",
          "name": "tokenId",
          "type": "uint256"
        }
      ],
      "name": "ownerOf",
      "outputs": [
        {
          "internalType": "address",
          "name": "",
          "type": "address"
        }
      ],
      "stateMutability": "view",
      "type": "function"
    },
    {
      "inputs": [
        {
          "internalType": "address",
          "name": "from",
          "type": "address"
        },
        {
          "internalType": "address",
          "name": "to",
          "type": "address"
        },
        {
          "internalType": "uint256",
          "name": "tokenId",
          "type": "uint256"
        }
      ],
      "name": "safeTransferFrom",
      "outputs": [],
      "stateMutability": "nonpayable",
      "type": "function"
    },
    {
      "inputs": [
        {
          "internalType": "address",
          "name": "from",
          "type": "address"
        },
        {
          "internalType": "address",
          "name": "to",
          "type": "address"
        },
        {
          "internalType": "uint256",
          "name": "tokenId",
          "type": "uint256"
        },
        {
          "internalType": "bytes",
          "name": "_data",
          "type": "bytes"
        }
      ],
      "name": "safeTransferFrom",
      "outputs": [],
      "stateMutability": "nonpayable",
      "type": "function"
    },
    {
      "inputs": [
        {
          "internalType": "address",
          "name": "operator",
          "type": "address"
        },
        {
          "internalType": "bool",
          "name": "approved",
          "type": "bool"
        }
      ],
      "name": "setApprovalForAll",
      "outputs": [],
      "stateMutability": "nonpayable",
      "type": "function"
    },
    {
      "inputs": [
        {
          "internalType": "bytes4",
          "name": "interfaceId",
          "type": "bytes4"
        }
      ],
      "name": "supportsInterface",
      "outputs": [
        {
          "internalType": "bool",
          "name": "",
          "type": "bool"
        }
      ],
      "stateMutability": "view",
      "type": "function"
    },
    {
      "inputs": [],
      "name": "symbol",
      "outputs": [
        {
          "internalType": "string",
          "name": "",
          "type": "string"
        }
      ],
      "stateMutability": "view",
      "type": "function"
    },
    {
      "inputs": [],
      "name": "tokenCount",
      "outputs": [
        {
          "internalType": "uint256",
          "name": "_value",
          "type": "uint256"
        }
      ],
      "stateMutability": "view",
      "type": "function"
    },
    {
      "inputs": [
        {
          "internalType": "uint256",
          "name": "tokenId",
          "type": "uint256"
        }
      ],
      "name": "tokenURI",
      "outputs": [
        {
          "internalType": "string",
          "name": "",
          "type": "string"
        }
      ],
      "stateMutability": "view",
      "type": "function"
    },
    {
      "inputs": [
        {
          "internalType": "address",
          "name": "from",
          "type": "address"
        },
        {
          "internalType": "address",
          "name": "to",
          "type": "address"
        },
        {
          "internalType": "uint256",
          "name": "tokenId",
          "type": "uint256"
        }
      ],
      "name": "transferFrom",
      "outputs": [],
      "stateMutability": "nonpayable",
      "type": "function"
    },
    {
      "inputs": [
        {
          "internalType": "uint256",
          "name": "_tokenId",
          "type": "uint256"
        }
      ],
      "name": "viewNFog",
      "outputs": [
        {
          "internalType": "string",
          "name": "",
          "type": "string"
        }
      ],
      "stateMutability": "view",
      "type": "function"
    }
  ],
  "bytecode": "0x60806040523480156200001157600080fd5b50604051620033ca380380620033ca833981810160405281019062000037919062000197565b818181600090805190602001906200005192919062000075565b5080600190805190602001906200006a92919062000075565b50505050506200033b565b8280546200008390620002a7565b90600052602060002090601f016020900481019282620000a75760008555620000f3565b82601f10620000c257805160ff1916838001178555620000f3565b82800160010185558215620000f3579182015b82811115620000f2578251825591602001919060010190620000d5565b5b50905062000102919062000106565b5090565b5b808211156200012157600081600090555060010162000107565b5090565b60006200013c62000136846200023e565b6200020a565b9050828152602081018484840111156200015557600080fd5b6200016284828562000271565b509392505050565b600082601f8301126200017c57600080fd5b81516200018e84826020860162000125565b91505092915050565b60008060408385031215620001ab57600080fd5b600083015167ffffffffffffffff811115620001c657600080fd5b620001d4858286016200016a565b925050602083015167ffffffffffffffff811115620001f257600080fd5b62000200858286016200016a565b9150509250929050565b6000604051905081810181811067ffffffffffffffff821117156200023457620002336200030c565b5b8060405250919050565b600067ffffffffffffffff8211156200025c576200025b6200030c565b5b601f19601f8301169050602081019050919050565b60005b838110156200029157808201518184015260208101905062000274565b83811115620002a1576000848401525b50505050565b60006002820490506001821680620002c057607f821691505b60208210811415620002d757620002d6620002dd565b5b50919050565b7f4e487b7100000000000000000000000000000000000000000000000000000000600052602260045260246000fd5b7f4e487b7100000000000000000000000000000000000000000000000000000000600052604160045260246000fd5b61307f806200034b6000396000f3fe608060405234801561001057600080fd5b50600436106101165760003560e01c80638aa0fdad116100a2578063b88d4fde11610071578063b88d4fde14610305578063c4c2f06114610321578063c87b56dd1461033d578063dea56d4d1461036d578063e985e9c51461039d57610116565b80638aa0fdad1461027d57806395d89b41146102ad5780639f181b5e146102cb578063a22cb465146102e957610116565b806323b872dd116100e957806323b872dd146101b557806342842e0e146101d1578063619bc0b3146101ed5780636352211e1461021d57806370a082311461024d57610116565b806301ffc9a71461011b57806306fdde031461014b578063081812fc14610169578063095ea7b314610199575b600080fd5b61013560048036038101906101309190612087565b6103cd565b6040516101429190612977565b60405180910390f35b6101536104af565b6040516101609190612992565b60405180910390f35b610183600480360381019061017e9190612145565b610541565b6040516101909190612910565b60405180910390f35b6101b360048036038101906101ae919061204b565b6105c6565b005b6101cf60048036038101906101ca9190611f45565b6106de565b005b6101eb60048036038101906101e69190611f45565b61073e565b005b61020760048036038101906102029190612145565b61075e565b6040516102149190612992565b60405180910390f35b61023760048036038101906102329190612145565b6108e8565b6040516102449190612910565b60405180910390f35b61026760048036038101906102629190611ee0565b61099a565b6040516102749190612c14565b60405180910390f35b610297600480360381019061029291906120d9565b610a52565b6040516102a49190612c14565b60405180910390f35b6102b5610a94565b6040516102c29190612992565b60405180910390f35b6102d3610b26565b6040516102e09190612c14565b60405180910390f35b61030360048036038101906102fe919061200f565b610b32565b005b61031f600480360381019061031a9190611f94565b610cb3565b005b61033b60048036038101906103369190612145565b610d15565b005b61035760048036038101906103529190612145565b610e6d565b6040516103649190612992565b60405180910390f35b61038760048036038101906103829190612145565b610fbf565b6040516103949190612977565b60405180910390f35b6103b760048036038101906103b29190611f09565b610fec565b6040516103c49190612977565b60405180910390f35b60007f80ac58cd000000000000000000000000000000000000000000000000000000007bffffffffffffffffffffffffffffffffffffffffffffffffffffffff1916827bffffffffffffffffffffffffffffffffffffffffffffffffffffffff1916148061049857507f5b5e139f000000000000000000000000000000000000000000000000000000007bffffffffffffffffffffffffffffffffffffffffffffffffffffffff1916827bffffffffffffffffffffffffffffffffffffffffffffffffffffffff1916145b806104a857506104a782611080565b5b9050919050565b6060600080546104be90612e74565b80601f01602080910402602001604051908101604052809291908181526020018280546104ea90612e74565b80156105375780601f1061050c57610100808354040283529160200191610537565b820191906000526020600020905b81548152906001019060200180831161051a57829003601f168201915b5050505050905090565b600061054c826110ea565b61058b576040517f08c379a000000000000000000000000000000000000000000000000000000000815260040161058290612b14565b60405180910390fd5b6004600083815260200190815260200160002060009054906101000a900473ffffffffffffffffffffffffffffffffffffffff169050919050565b60006105d1826108e8565b90508073ffffffffffffffffffffffffffffffffffffffff168373ffffffffffffffffffffffffffffffffffffffff161415610642576040517f08c379a000000000000000000000000000000000000000000000000000000000815260040161063990612b94565b60405180910390fd5b8073ffffffffffffffffffffffffffffffffffffffff16610661611156565b73ffffffffffffffffffffffffffffffffffffffff161480610690575061068f8161068a611156565b610fec565b5b6106cf576040517f08c379a00000000000000000000000000000000000000000000000000000000081526004016106c690612a54565b60405180910390fd5b6106d9838361115e565b505050565b6106ef6106e9611156565b82611217565b61072e576040517f08c379a000000000000000000000000000000000000000000000000000000000815260040161072590612bf4565b60405180910390fd5b6107398383836112f5565b505050565b61075983838360405180602001604052806000815250610cb3565b505050565b60608161076a816108e8565b73ffffffffffffffffffffffffffffffffffffffff163373ffffffffffffffffffffffffffffffffffffffff16146107d7576040517f08c379a00000000000000000000000000000000000000000000000000000000081526004016107ce90612b34565b60405180910390fd5b600115156008600085815260200190815260200160002060010160009054906101000a900460ff16151514610841576040517f08c379a000000000000000000000000000000000000000000000000000000000815260040161083890612bb4565b60405180910390fd5b60086000848152602001908152602001600020600001805461086290612e74565b80601f016020809104026020016040519081016040528092919081815260200182805461088e90612e74565b80156108db5780601f106108b0576101008083540402835291602001916108db565b820191906000526020600020905b8154815290600101906020018083116108be57829003601f168201915b5050505050915050919050565b6000806002600084815260200190815260200160002060009054906101000a900473ffffffffffffffffffffffffffffffffffffffff169050600073ffffffffffffffffffffffffffffffffffffffff168173ffffffffffffffffffffffffffffffffffffffff161415610991576040517f08c379a000000000000000000000000000000000000000000000000000000000815260040161098890612a94565b60405180910390fd5b80915050919050565b60008073ffffffffffffffffffffffffffffffffffffffff168273ffffffffffffffffffffffffffffffffffffffff161415610a0b576040517f08c379a0000000000000000000000000000000000000000000000000000000008152600401610a0290612a74565b60405180910390fd5b600360008373ffffffffffffffffffffffffffffffffffffffff1673ffffffffffffffffffffffffffffffffffffffff168152602001908152602001600020549050919050565b6000610a5e6007611551565b6000610a6a6007611567565b9050610a763382611575565b610a808185611593565b610a8a8184611607565b8091505092915050565b606060018054610aa390612e74565b80601f0160208091040260200160405190810160405280929190818152602001828054610acf90612e74565b8015610b1c5780601f10610af157610100808354040283529160200191610b1c565b820191906000526020600020905b815481529060010190602001808311610aff57829003601f168201915b5050505050905090565b60078060000154905081565b610b3a611156565b73ffffffffffffffffffffffffffffffffffffffff168273ffffffffffffffffffffffffffffffffffffffff161415610ba8576040517f08c379a0000000000000000000000000000000000000000000000000000000008152600401610b9f90612a14565b60405180910390fd5b8060056000610bb5611156565b73ffffffffffffffffffffffffffffffffffffffff1673ffffffffffffffffffffffffffffffffffffffff16815260200190815260200160002060008473ffffffffffffffffffffffffffffffffffffffff1673ffffffffffffffffffffffffffffffffffffffff16815260200190815260200160002060006101000a81548160ff0219169083151502179055508173ffffffffffffffffffffffffffffffffffffffff16610c62611156565b73ffffffffffffffffffffffffffffffffffffffff167f17307eab39ab6107e8899845ad3d59bd9653f200f220920489ca2b5937696c3183604051610ca79190612977565b60405180910390a35050565b610cc4610cbe611156565b83611217565b610d03576040517f08c379a0000000000000000000000000000000000000000000000000000000008152600401610cfa90612bf4565b60405180910390fd5b610d0f84848484611665565b50505050565b80610d1f816108e8565b73ffffffffffffffffffffffffffffffffffffffff163373ffffffffffffffffffffffffffffffffffffffff1614610d8c576040517f08c379a0000000000000000000000000000000000000000000000000000000008152600401610d8390612b34565b60405180910390fd5b600015156008600084815260200190815260200160002060010160009054906101000a900460ff16151514610df6576040517f08c379a0000000000000000000000000000000000000000000000000000000008152600401610ded90612bd4565b60405180910390fd5b60016008600084815260200190815260200160002060010160006101000a81548160ff0219169083151502179055503373ffffffffffffffffffffffffffffffffffffffff16827fca40331f6791d4e023be7a5d4796e531d1f779418c9fef9e8ec35e4cb842a78460405160405180910390a35050565b6060610e78826110ea565b610eb7576040517f08c379a0000000000000000000000000000000000000000000000000000000008152600401610eae90612af4565b60405180910390fd5b6000600660008481526020019081526020016000208054610ed790612e74565b80601f0160208091040260200160405190810160405280929190818152602001828054610f0390612e74565b8015610f505780601f10610f2557610100808354040283529160200191610f50565b820191906000526020600020905b815481529060010190602001808311610f3357829003601f168201915b505050505090506000610f616116c1565b9050600081511415610f77578192505050610fba565b600082511115610fac578082604051602001610f949291906128ec565b60405160208183030381529060405292505050610fba565b610fb5846116d8565b925050505b919050565b60006008600083815260200190815260200160002060010160009054906101000a900460ff169050919050565b6000600560008473ffffffffffffffffffffffffffffffffffffffff1673ffffffffffffffffffffffffffffffffffffffff16815260200190815260200160002060008373ffffffffffffffffffffffffffffffffffffffff1673ffffffffffffffffffffffffffffffffffffffff16815260200190815260200160002060009054906101000a900460ff16905092915050565b60007f01ffc9a7000000000000000000000000000000000000000000000000000000007bffffffffffffffffffffffffffffffffffffffffffffffffffffffff1916827bffffffffffffffffffffffffffffffffffffffffffffffffffffffff1916149050919050565b60008073ffffffffffffffffffffffffffffffffffffffff166002600084815260200190815260200160002060009054906101000a900473ffffffffffffffffffffffffffffffffffffffff1673ffffffffffffffffffffffffffffffffffffffff1614159050919050565b600033905090565b816004600083815260200190815260200160002060006101000a81548173ffffffffffffffffffffffffffffffffffffffff021916908373ffffffffffffffffffffffffffffffffffffffff160217905550808273ffffffffffffffffffffffffffffffffffffffff166111d1836108e8565b73ffffffffffffffffffffffffffffffffffffffff167f8c5be1e5ebec7d5bd14f71427d1e84f3dd0314c0f7b2291e5b200ac8c7c3b92560405160405180910390a45050565b6000611222826110ea565b611261576040517f08c379a000000000000000000000000000000000000000000000000000000000815260040161125890612a34565b60405180910390fd5b600061126c836108e8565b90508073ffffffffffffffffffffffffffffffffffffffff168473ffffffffffffffffffffffffffffffffffffffff1614806112db57508373ffffffffffffffffffffffffffffffffffffffff166112c384610541565b73ffffffffffffffffffffffffffffffffffffffff16145b806112ec57506112eb8185610fec565b5b91505092915050565b8273ffffffffffffffffffffffffffffffffffffffff16611315826108e8565b73ffffffffffffffffffffffffffffffffffffffff161461136b576040517f08c379a000000000000000000000000000000000000000000000000000000000815260040161136290612b54565b60405180910390fd5b600073ffffffffffffffffffffffffffffffffffffffff168273ffffffffffffffffffffffffffffffffffffffff1614156113db576040517f08c379a00000000000000000000000000000000000000000000000000000000081526004016113d2906129f4565b60405180910390fd5b6113e683838361177f565b6113f160008261115e565b6001600360008573ffffffffffffffffffffffffffffffffffffffff1673ffffffffffffffffffffffffffffffffffffffff16815260200190815260200160002060008282546114419190612d8a565b925050819055506001600360008473ffffffffffffffffffffffffffffffffffffffff1673ffffffffffffffffffffffffffffffffffffffff16815260200190815260200160002060008282546114989190612d03565b92505081905550816002600083815260200190815260200160002060006101000a81548173ffffffffffffffffffffffffffffffffffffffff021916908373ffffffffffffffffffffffffffffffffffffffff160217905550808273ffffffffffffffffffffffffffffffffffffffff168473ffffffffffffffffffffffffffffffffffffffff167fddf252ad1be2c89b69c2b068fc378daa952ba7f163c4a11628f55a4df523b3ef60405160405180910390a4505050565b6001816000016000828254019250508190555050565b600081600001549050919050565b61158f828260405180602001604052806000815250611784565b5050565b61159c826110ea565b6115db576040517f08c379a00000000000000000000000000000000000000000000000000000000081526004016115d290612ab4565b60405180910390fd5b80600660008481526020019081526020016000209080519060200190611602929190611d04565b505050565b80600860008481526020019081526020016000206000019080519060200190611631929190611d04565b5060006008600084815260200190815260200160002060010160006101000a81548160ff0219169083151502179055505050565b6116708484846112f5565b61167c848484846117df565b6116bb576040517f08c379a00000000000000000000000000000000000000000000000000000000081526004016116b2906129b4565b60405180910390fd5b50505050565b606060405180602001604052806000815250905090565b60606116e3826110ea565b611722576040517f08c379a000000000000000000000000000000000000000000000000000000000815260040161171990612b74565b60405180910390fd5b600061172c6116c1565b9050600081511161174c5760405180602001604052806000815250611777565b8061175684611976565b6040516020016117679291906128ec565b6040516020818303038152906040525b915050919050565b505050565b61178e8383611b23565b61179b60008484846117df565b6117da576040517f08c379a00000000000000000000000000000000000000000000000000000000081526004016117d1906129b4565b60405180910390fd5b505050565b60006118008473ffffffffffffffffffffffffffffffffffffffff16611cf1565b15611969578373ffffffffffffffffffffffffffffffffffffffff1663150b7a02611829611156565b8786866040518563ffffffff1660e01b815260040161184b949392919061292b565b602060405180830381600087803b15801561186557600080fd5b505af192505050801561189657506040513d601f19601f8201168201806040525081019061189391906120b0565b60015b611919573d80600081146118c6576040519150601f19603f3d011682016040523d82523d6000602084013e6118cb565b606091505b50600081511415611911576040517f08c379a0000000000000000000000000000000000000000000000000000000008152600401611908906129b4565b60405180910390fd5b805181602001fd5b63150b7a0260e01b7bffffffffffffffffffffffffffffffffffffffffffffffffffffffff1916817bffffffffffffffffffffffffffffffffffffffffffffffffffffffff19161491505061196e565b600190505b949350505050565b606060008214156119be576040518060400160405280600181526020017f30000000000000000000000000000000000000000000000000000000000000008152509050611b1e565b600082905060005b600082146119f05780806119d990612ea6565b915050600a826119e99190612d59565b91506119c6565b60008167ffffffffffffffff811115611a32577f4e487b7100000000000000000000000000000000000000000000000000000000600052604160045260246000fd5b6040519080825280601f01601f191660200182016040528015611a645781602001600182028036833780820191505090505b5090505b60008514611b1757600182611a7d9190612d8a565b9150600a85611a8c9190612eef565b6030611a989190612d03565b60f81b818381518110611ad4577f4e487b7100000000000000000000000000000000000000000000000000000000600052603260045260246000fd5b60200101907effffffffffffffffffffffffffffffffffffffffffffffffffffffffffffff1916908160001a905350600a85611b109190612d59565b9450611a68565b8093505050505b919050565b600073ffffffffffffffffffffffffffffffffffffffff168273ffffffffffffffffffffffffffffffffffffffff161415611b93576040517f08c379a0000000000000000000000000000000000000000000000000000000008152600401611b8a90612ad4565b60405180910390fd5b611b9c816110ea565b15611bdc576040517f08c379a0000000000000000000000000000000000000000000000000000000008152600401611bd3906129d4565b60405180910390fd5b611be86000838361177f565b6001600360008473ffffffffffffffffffffffffffffffffffffffff1673ffffffffffffffffffffffffffffffffffffffff1681526020019081526020016000206000828254611c389190612d03565b92505081905550816002600083815260200190815260200160002060006101000a81548173ffffffffffffffffffffffffffffffffffffffff021916908373ffffffffffffffffffffffffffffffffffffffff160217905550808273ffffffffffffffffffffffffffffffffffffffff16600073ffffffffffffffffffffffffffffffffffffffff167fddf252ad1be2c89b69c2b068fc378daa952ba7f163c4a11628f55a4df523b3ef60405160405180910390a45050565b600080823b905060008111915050919050565b828054611d1090612e74565b90600052602060002090601f016020900481019282611d325760008555611d79565b82601f10611d4b57805160ff1916838001178555611d79565b82800160010185558215611d79579182015b82811115611d78578251825591602001919060010190611d5d565b5b509050611d869190611d8a565b5090565b5b80821115611da3576000816000905550600101611d8b565b5090565b6000611dba611db584612c60565b612c2f565b905082815260208101848484011115611dd257600080fd5b611ddd848285612e32565b509392505050565b6000611df8611df384612c90565b612c2f565b905082815260208101848484011115611e1057600080fd5b611e1b848285612e32565b509392505050565b600081359050611e3281612fed565b92915050565b600081359050611e4781613004565b92915050565b600081359050611e5c8161301b565b92915050565b600081519050611e718161301b565b92915050565b600082601f830112611e8857600080fd5b8135611e98848260208601611da7565b91505092915050565b600082601f830112611eb257600080fd5b8135611ec2848260208601611de5565b91505092915050565b600081359050611eda81613032565b92915050565b600060208284031215611ef257600080fd5b6000611f0084828501611e23565b91505092915050565b60008060408385031215611f1c57600080fd5b6000611f2a85828601611e23565b9250506020611f3b85828601611e23565b9150509250929050565b600080600060608486031215611f5a57600080fd5b6000611f6886828701611e23565b9350506020611f7986828701611e23565b9250506040611f8a86828701611ecb565b9150509250925092565b60008060008060808587031215611faa57600080fd5b6000611fb887828801611e23565b9450506020611fc987828801611e23565b9350506040611fda87828801611ecb565b925050606085013567ffffffffffffffff811115611ff757600080fd5b61200387828801611e77565b91505092959194509250565b6000806040838503121561202257600080fd5b600061203085828601611e23565b925050602061204185828601611e38565b9150509250929050565b6000806040838503121561205e57600080fd5b600061206c85828601611e23565b925050602061207d85828601611ecb565b9150509250929050565b60006020828403121561209957600080fd5b60006120a784828501611e4d565b91505092915050565b6000602082840312156120c257600080fd5b60006120d084828501611e62565b91505092915050565b600080604083850312156120ec57600080fd5b600083013567ffffffffffffffff81111561210657600080fd5b61211285828601611ea1565b925050602083013567ffffffffffffffff81111561212f57600080fd5b61213b85828601611ea1565b9150509250929050565b60006020828403121561215757600080fd5b600061216584828501611ecb565b91505092915050565b61217781612dbe565b82525050565b61218681612dd0565b82525050565b600061219782612cc0565b6121a18185612cd6565b93506121b1818560208601612e41565b6121ba81612fdc565b840191505092915050565b60006121d082612ccb565b6121da8185612ce7565b93506121ea818560208601612e41565b6121f381612fdc565b840191505092915050565b600061220982612ccb565b6122138185612cf8565b9350612223818560208601612e41565b80840191505092915050565b600061223c603283612ce7565b91507f4552433732313a207472616e7366657220746f206e6f6e20455243373231526560008301527f63656976657220696d706c656d656e74657200000000000000000000000000006020830152604082019050919050565b60006122a2601c83612ce7565b91507f4552433732313a20746f6b656e20616c7265616479206d696e746564000000006000830152602082019050919050565b60006122e2602483612ce7565b91507f4552433732313a207472616e7366657220746f20746865207a65726f2061646460008301527f72657373000000000000000000000000000000000000000000000000000000006020830152604082019050919050565b6000612348601983612ce7565b91507f4552433732313a20617070726f766520746f2063616c6c6572000000000000006000830152602082019050919050565b6000612388602c83612ce7565b91507f4552433732313a206f70657261746f7220717565727920666f72206e6f6e657860008301527f697374656e7420746f6b656e00000000000000000000000000000000000000006020830152604082019050919050565b60006123ee603883612ce7565b91507f4552433732313a20617070726f76652063616c6c6572206973206e6f74206f7760008301527f6e6572206e6f7220617070726f76656420666f7220616c6c00000000000000006020830152604082019050919050565b6000612454602a83612ce7565b91507f4552433732313a2062616c616e636520717565727920666f7220746865207a6560008301527f726f2061646472657373000000000000000000000000000000000000000000006020830152604082019050919050565b60006124ba602983612ce7565b91507f4552433732313a206f776e657220717565727920666f72206e6f6e657869737460008301527f656e7420746f6b656e00000000000000000000000000000000000000000000006020830152604082019050919050565b6000612520602e83612ce7565b91507f45524337323155524953746f726167653a2055524920736574206f66206e6f6e60008301527f6578697374656e7420746f6b656e0000000000000000000000000000000000006020830152604082019050919050565b6000612586602083612ce7565b91507f4552433732313a206d696e7420746f20746865207a65726f20616464726573736000830152602082019050919050565b60006125c6603183612ce7565b91507f45524337323155524953746f726167653a2055524920717565727920666f722060008301527f6e6f6e6578697374656e7420746f6b656e0000000000000000000000000000006020830152604082019050919050565b600061262c602c83612ce7565b91507f4552433732313a20617070726f76656420717565727920666f72206e6f6e657860008301527f697374656e7420746f6b656e00000000000000000000000000000000000000006020830152604082019050919050565b6000612692601d83612ce7565b91507f4f6e6c79204e466f67206f776e657220697320617574686f72697a65640000006000830152602082019050919050565b60006126d2602983612ce7565b91507f4552433732313a207472616e73666572206f6620746f6b656e2074686174206960008301527f73206e6f74206f776e00000000000000000000000000000000000000000000006020830152604082019050919050565b6000612738602f83612ce7565b91507f4552433732314d657461646174613a2055524920717565727920666f72206e6f60008301527f6e6578697374656e7420746f6b656e00000000000000000000000000000000006020830152604082019050919050565b600061279e602183612ce7565b91507f4552433732313a20617070726f76616c20746f2063757272656e74206f776e6560008301527f72000000000000000000000000000000000000000000000000000000000000006020830152604082019050919050565b6000612804601383612ce7565b91507f4e466f67206973206e6f74206f70656e6e6564000000000000000000000000006000830152602082019050919050565b6000612844601783612ce7565b91507f4e466f6720697320616c7265616479206f70656e6e65640000000000000000006000830152602082019050919050565b6000612884603183612ce7565b91507f4552433732313a207472616e736665722063616c6c6572206973206e6f74206f60008301527f776e6572206e6f7220617070726f7665640000000000000000000000000000006020830152604082019050919050565b6128e681612e28565b82525050565b60006128f882856121fe565b915061290482846121fe565b91508190509392505050565b6000602082019050612925600083018461216e565b92915050565b6000608082019050612940600083018761216e565b61294d602083018661216e565b61295a60408301856128dd565b818103606083015261296c818461218c565b905095945050505050565b600060208201905061298c600083018461217d565b92915050565b600060208201905081810360008301526129ac81846121c5565b905092915050565b600060208201905081810360008301526129cd8161222f565b9050919050565b600060208201905081810360008301526129ed81612295565b9050919050565b60006020820190508181036000830152612a0d816122d5565b9050919050565b60006020820190508181036000830152612a2d8161233b565b9050919050565b60006020820190508181036000830152612a4d8161237b565b9050919050565b60006020820190508181036000830152612a6d816123e1565b9050919050565b60006020820190508181036000830152612a8d81612447565b9050919050565b60006020820190508181036000830152612aad816124ad565b9050919050565b60006020820190508181036000830152612acd81612513565b9050919050565b60006020820190508181036000830152612aed81612579565b9050919050565b60006020820190508181036000830152612b0d816125b9565b9050919050565b60006020820190508181036000830152612b2d8161261f565b9050919050565b60006020820190508181036000830152612b4d81612685565b9050919050565b60006020820190508181036000830152612b6d816126c5565b9050919050565b60006020820190508181036000830152612b8d8161272b565b9050919050565b60006020820190508181036000830152612bad81612791565b9050919050565b60006020820190508181036000830152612bcd816127f7565b9050919050565b60006020820190508181036000830152612bed81612837565b9050919050565b60006020820190508181036000830152612c0d81612877565b9050919050565b6000602082019050612c2960008301846128dd565b92915050565b6000604051905081810181811067ffffffffffffffff82111715612c5657612c55612fad565b5b8060405250919050565b600067ffffffffffffffff821115612c7b57612c7a612fad565b5b601f19601f8301169050602081019050919050565b600067ffffffffffffffff821115612cab57612caa612fad565b5b601f19601f8301169050602081019050919050565b600081519050919050565b600081519050919050565b600082825260208201905092915050565b600082825260208201905092915050565b600081905092915050565b6000612d0e82612e28565b9150612d1983612e28565b9250827fffffffffffffffffffffffffffffffffffffffffffffffffffffffffffffffff03821115612d4e57612d4d612f20565b5b828201905092915050565b6000612d6482612e28565b9150612d6f83612e28565b925082612d7f57612d7e612f4f565b5b828204905092915050565b6000612d9582612e28565b9150612da083612e28565b925082821015612db357612db2612f20565b5b828203905092915050565b6000612dc982612e08565b9050919050565b60008115159050919050565b60007fffffffff0000000000000000000000000000000000000000000000000000000082169050919050565b600073ffffffffffffffffffffffffffffffffffffffff82169050919050565b6000819050919050565b82818337600083830152505050565b60005b83811015612e5f578082015181840152602081019050612e44565b83811115612e6e576000848401525b50505050565b60006002820490506001821680612e8c57607f821691505b60208210811415612ea057612e9f612f7e565b5b50919050565b6000612eb182612e28565b91507fffffffffffffffffffffffffffffffffffffffffffffffffffffffffffffffff821415612ee457612ee3612f20565b5b600182019050919050565b6000612efa82612e28565b9150612f0583612e28565b925082612f1557612f14612f4f565b5b828206905092915050565b7f4e487b7100000000000000000000000000000000000000000000000000000000600052601160045260246000fd5b7f4e487b7100000000000000000000000000000000000000000000000000000000600052601260045260246000fd5b7f4e487b7100000000000000000000000000000000000000000000000000000000600052602260045260246000fd5b7f4e487b7100000000000000000000000000000000000000000000000000000000600052604160045260246000fd5b6000601f19601f8301169050919050565b612ff681612dbe565b811461300157600080fd5b50565b61300d81612dd0565b811461301857600080fd5b50565b61302481612ddc565b811461302f57600080fd5b50565b61303b81612e28565b811461304657600080fd5b5056fea2646970667358221220b85d36d925d3782b23ba90a0630517e0fe5bbd36c52a459059b1e3bd7e2cb59864736f6c63430008000033",
  "linkReferences": {},
  "deployedLinkReferences": {}
}