{
  "_format": "hh-sol-artifact-1",
  "contractName": "NFog",
  "sourceName": "contracts/NFog.sol",
  "abi": [
    {
      "inputs": [
        {
          "internalType": "string",
          "name": "_name",
          "type": "string"
        },
        {
          "internalType": "string",
          "name": "_symbol",
          "type": "string"
        }
      ],
      "stateMutability": "nonpayable",
      "type": "constructor"
    },
    {
      "anonymous": false,
      "inputs": [
        {
          "indexed": true,
          "internalType": "address",
          "name": "owner",
          "type": "address"
        },
        {
          "indexed": true,
          "internalType": "address",
          "name": "approved",
          "type": "address"
        },
        {
          "indexed": true,
          "internalType": "uint256",
          "name": "tokenId",
          "type": "uint256"
        }
      ],
      "name": "Approval",
      "type": "event"
    },
    {
      "anonymous": false,
      "inputs": [
        {
          "indexed": true,
          "internalType": "address",
          "name": "owner",
          "type": "address"
        },
        {
          "indexed": true,
          "internalType": "address",
          "name": "operator",
          "type": "address"
        },
        {
          "indexed": false,
          "internalType": "bool",
          "name": "approved",
          "type": "bool"
        }
      ],
      "name": "ApprovalForAll",
      "type": "event"
    },
    {
      "anonymous": false,
      "inputs": [
        {
          "indexed": true,
          "internalType": "uint256",
          "name": "tokenId",
          "type": "uint256"
        },
        {
          "indexed": true,
          "internalType": "address",
          "name": "owner",
          "type": "address"
        }
      ],
      "name": "NFogOpenned",
      "type": "event"
    },
    {
      "anonymous": false,
      "inputs": [
        {
          "indexed": true,
          "internalType": "address",
          "name": "from",
          "type": "address"
        },
        {
          "indexed": true,
          "internalType": "address",
          "name": "to",
          "type": "address"
        },
        {
          "indexed": true,
          "internalType": "uint256",
          "name": "tokenId",
          "type": "uint256"
        }
      ],
      "name": "Transfer",
      "type": "event"
    },
    {
      "inputs": [
        {
          "internalType": "address",
          "name": "to",
          "type": "address"
        },
        {
          "internalType": "uint256",
          "name": "tokenId",
          "type": "uint256"
        }
      ],
      "name": "approve",
      "outputs": [],
      "stateMutability": "nonpayable",
      "type": "function"
    },
    {
      "inputs": [
        {
          "internalType": "address",
          "name": "owner",
          "type": "address"
        }
      ],
      "name": "balanceOf",
      "outputs": [
        {
          "internalType": "uint256",
          "name": "",
          "type": "uint256"
        }
      ],
      "stateMutability": "view",
      "type": "function"
    },
    {
      "inputs": [
        {
          "internalType": "uint256",
          "name": "tokenId",
          "type": "uint256"
        }
      ],
      "name": "getApproved",
      "outputs": [
        {
          "internalType": "address",
          "name": "",
          "type": "address"
        }
      ],
      "stateMutability": "view",
      "type": "function"
    },
    {
      "inputs": [
        {
          "internalType": "address",
          "name": "owner",
          "type": "address"
        },
        {
          "internalType": "address",
          "name": "operator",
          "type": "address"
        }
      ],
      "name": "isApprovedForAll",
      "outputs": [
        {
          "internalType": "bool",
          "name": "",
          "type": "bool"
        }
      ],
      "stateMutability": "view",
      "type": "function"
    },
    {
      "inputs": [
        {
          "internalType": "uint256",
          "name": "_tokenId",
          "type": "uint256"
        }
      ],
      "name": "isNFogOpen",
      "outputs": [
        {
          "internalType": "bool",
          "name": "",
          "type": "bool"
        }
      ],
      "stateMutability": "view",
      "type": "function"
    },
    {
      "inputs": [
        {
          "internalType": "string",
          "name": "tokenURI",
          "type": "string"
        },
        {
          "internalType": "string",
          "name": "secret",
          "type": "string"
        }
      ],
      "name": "mint",
      "outputs": [
        {
          "internalType": "uint256",
          "name": "",
          "type": "uint256"
        }
      ],
      "stateMutability": "nonpayable",
      "type": "function"
    },
    {
      "inputs": [],
      "name": "name",
      "outputs": [
        {
          "internalType": "string",
          "name": "",
          "type": "string"
        }
      ],
      "stateMutability": "view",
      "type": "function"
    },
    {
      "inputs": [
        {
          "internalType": "uint256",
          "name": "_tokenId",
          "type": "uint256"
        }
      ],
      "name": "openNFog",
      "outputs": [
        {
          "internalType": "string",
          "name": "",
          "type": "string"
        }
      ],
      "stateMutability": "nonpayable",
      "type": "function"
    },
    {
      "inputs": [
        {
          "internalType": "uint256",
          "name": "tokenId",
          "type": "uint256"
        }
      ],
      "name": "ownerOf",
      "outputs": [
        {
          "internalType": "address",
          "name": "",
          "type": "address"
        }
      ],
      "stateMutability": "view",
      "type": "function"
    },
    {
      "inputs": [
        {
          "internalType": "address",
          "name": "from",
          "type": "address"
        },
        {
          "internalType": "address",
          "name": "to",
          "type": "address"
        },
        {
          "internalType": "uint256",
          "name": "tokenId",
          "type": "uint256"
        }
      ],
      "name": "safeTransferFrom",
      "outputs": [],
      "stateMutability": "nonpayable",
      "type": "function"
    },
    {
      "inputs": [
        {
          "internalType": "address",
          "name": "from",
          "type": "address"
        },
        {
          "internalType": "address",
          "name": "to",
          "type": "address"
        },
        {
          "internalType": "uint256",
          "name": "tokenId",
          "type": "uint256"
        },
        {
          "internalType": "bytes",
          "name": "_data",
          "type": "bytes"
        }
      ],
      "name": "safeTransferFrom",
      "outputs": [],
      "stateMutability": "nonpayable",
      "type": "function"
    },
    {
      "inputs": [
        {
          "internalType": "address",
          "name": "operator",
          "type": "address"
        },
        {
          "internalType": "bool",
          "name": "approved",
          "type": "bool"
        }
      ],
      "name": "setApprovalForAll",
      "outputs": [],
      "stateMutability": "nonpayable",
      "type": "function"
    },
    {
      "inputs": [
        {
          "internalType": "bytes4",
          "name": "interfaceId",
          "type": "bytes4"
        }
      ],
      "name": "supportsInterface",
      "outputs": [
        {
          "internalType": "bool",
          "name": "",
          "type": "bool"
        }
      ],
      "stateMutability": "view",
      "type": "function"
    },
    {
      "inputs": [],
      "name": "symbol",
      "outputs": [
        {
          "internalType": "string",
          "name": "",
          "type": "string"
        }
      ],
      "stateMutability": "view",
      "type": "function"
    },
    {
      "inputs": [
        {
          "internalType": "uint256",
          "name": "tokenId",
          "type": "uint256"
        }
      ],
      "name": "tokenURI",
      "outputs": [
        {
          "internalType": "string",
          "name": "",
          "type": "string"
        }
      ],
      "stateMutability": "view",
      "type": "function"
    },
    {
      "inputs": [
        {
          "internalType": "address",
          "name": "from",
          "type": "address"
        },
        {
          "internalType": "address",
          "name": "to",
          "type": "address"
        },
        {
          "internalType": "uint256",
          "name": "tokenId",
          "type": "uint256"
        }
      ],
      "name": "transferFrom",
      "outputs": [],
      "stateMutability": "nonpayable",
      "type": "function"
    },
    {
      "inputs": [
        {
          "internalType": "uint256",
          "name": "_tokenId",
          "type": "uint256"
        }
      ],
      "name": "viewNFog",
      "outputs": [
        {
          "internalType": "string",
          "name": "",
          "type": "string"
        }
      ],
      "stateMutability": "nonpayable",
      "type": "function"
    }
  ],
  "bytecode": "0x60806040523480156200001157600080fd5b506040516200338738038062003387833981810160405281019062000037919062000197565b818181600090805190602001906200005192919062000075565b5080600190805190602001906200006a92919062000075565b50505050506200033b565b8280546200008390620002a7565b90600052602060002090601f016020900481019282620000a75760008555620000f3565b82601f10620000c257805160ff1916838001178555620000f3565b82800160010185558215620000f3579182015b82811115620000f2578251825591602001919060010190620000d5565b5b50905062000102919062000106565b5090565b5b808211156200012157600081600090555060010162000107565b5090565b60006200013c62000136846200023e565b6200020a565b9050828152602081018484840111156200015557600080fd5b6200016284828562000271565b509392505050565b600082601f8301126200017c57600080fd5b81516200018e84826020860162000125565b91505092915050565b60008060408385031215620001ab57600080fd5b600083015167ffffffffffffffff811115620001c657600080fd5b620001d4858286016200016a565b925050602083015167ffffffffffffffff811115620001f257600080fd5b62000200858286016200016a565b9150509250929050565b6000604051905081810181811067ffffffffffffffff821117156200023457620002336200030c565b5b8060405250919050565b600067ffffffffffffffff8211156200025c576200025b6200030c565b5b601f19601f8301169050602081019050919050565b60005b838110156200029157808201518184015260208101905062000274565b83811115620002a1576000848401525b50505050565b60006002820490506001821680620002c057607f821691505b60208210811415620002d757620002d6620002dd565b5b50919050565b7f4e487b7100000000000000000000000000000000000000000000000000000000600052602260045260246000fd5b7f4e487b7100000000000000000000000000000000000000000000000000000000600052604160045260246000fd5b61303c806200034b6000396000f3fe608060405234801561001057600080fd5b506004361061010b5760003560e01c806370a08231116100a2578063b88d4fde11610071578063b88d4fde146102dc578063c4c2f061146102f8578063c87b56dd14610328578063dea56d4d14610358578063e985e9c5146103885761010b565b806370a08231146102425780638aa0fdad1461027257806395d89b41146102a2578063a22cb465146102c05761010b565b806323b872dd116100de57806323b872dd146101aa57806342842e0e146101c6578063619bc0b3146101e25780636352211e146102125761010b565b806301ffc9a71461011057806306fdde0314610140578063081812fc1461015e578063095ea7b31461018e575b600080fd5b61012a600480360381019061012591906120a4565b6103b8565b6040516101379190612954565b60405180910390f35b61014861049a565b604051610155919061296f565b60405180910390f35b61017860048036038101906101739190612162565b61052c565b60405161018591906128ed565b60405180910390f35b6101a860048036038101906101a39190612068565b6105b1565b005b6101c460048036038101906101bf9190611f62565b6106c9565b005b6101e060048036038101906101db9190611f62565b610729565b005b6101fc60048036038101906101f79190612162565b610749565b604051610209919061296f565b60405180910390f35b61022c60048036038101906102279190612162565b61091a565b60405161023991906128ed565b60405180910390f35b61025c60048036038101906102579190611efd565b6109cc565b6040516102699190612bd1565b60405180910390f35b61028c600480360381019061028791906120f6565b610a84565b6040516102999190612bd1565b60405180910390f35b6102aa610ac6565b6040516102b7919061296f565b60405180910390f35b6102da60048036038101906102d5919061202c565b610b58565b005b6102f660048036038101906102f19190611fb1565b610cd9565b005b610312600480360381019061030d9190612162565b610d3b565b60405161031f919061296f565b60405180910390f35b610342600480360381019061033d9190612162565b610e8a565b60405161034f919061296f565b60405180910390f35b610372600480360381019061036d9190612162565b610fdc565b60405161037f9190612954565b60405180910390f35b6103a2600480360381019061039d9190611f26565b611009565b6040516103af9190612954565b60405180910390f35b60007f80ac58cd000000000000000000000000000000000000000000000000000000007bffffffffffffffffffffffffffffffffffffffffffffffffffffffff1916827bffffffffffffffffffffffffffffffffffffffffffffffffffffffff1916148061048357507f5b5e139f000000000000000000000000000000000000000000000000000000007bffffffffffffffffffffffffffffffffffffffffffffffffffffffff1916827bffffffffffffffffffffffffffffffffffffffffffffffffffffffff1916145b8061049357506104928261109d565b5b9050919050565b6060600080546104a990612e31565b80601f01602080910402602001604051908101604052809291908181526020018280546104d590612e31565b80156105225780601f106104f757610100808354040283529160200191610522565b820191906000526020600020905b81548152906001019060200180831161050557829003601f168201915b5050505050905090565b600061053782611107565b610576576040517f08c379a000000000000000000000000000000000000000000000000000000000815260040161056d90612af1565b60405180910390fd5b6004600083815260200190815260200160002060009054906101000a900473ffffffffffffffffffffffffffffffffffffffff169050919050565b60006105bc8261091a565b90508073ffffffffffffffffffffffffffffffffffffffff168373ffffffffffffffffffffffffffffffffffffffff16141561062d576040517f08c379a000000000000000000000000000000000000000000000000000000000815260040161062490612b71565b60405180910390fd5b8073ffffffffffffffffffffffffffffffffffffffff1661064c611173565b73ffffffffffffffffffffffffffffffffffffffff16148061067b575061067a81610675611173565b611009565b5b6106ba576040517f08c379a00000000000000000000000000000000000000000000000000000000081526004016106b190612a31565b60405180910390fd5b6106c4838361117b565b505050565b6106da6106d4611173565b82611234565b610719576040517f08c379a000000000000000000000000000000000000000000000000000000000815260040161071090612bb1565b60405180910390fd5b610724838383611312565b505050565b61074483838360405180602001604052806000815250610cd9565b505050565b6060816107558161091a565b73ffffffffffffffffffffffffffffffffffffffff163373ffffffffffffffffffffffffffffffffffffffff16146107c2576040517f08c379a00000000000000000000000000000000000000000000000000000000081526004016107b990612b11565b60405180910390fd5b60006008600085815260200190815260200160002060010160006101000a81548160ff021916908315150217905561082f576040517f08c379a000000000000000000000000000000000000000000000000000000000815260040161082690612b91565b60405180910390fd5b3373ffffffffffffffffffffffffffffffffffffffff16837fca40331f6791d4e023be7a5d4796e531d1f779418c9fef9e8ec35e4cb842a78460405160405180910390a360086000848152602001908152602001600020600001805461089490612e31565b80601f01602080910402602001604051908101604052809291908181526020018280546108c090612e31565b801561090d5780601f106108e25761010080835404028352916020019161090d565b820191906000526020600020905b8154815290600101906020018083116108f057829003601f168201915b5050505050915050919050565b6000806002600084815260200190815260200160002060009054906101000a900473ffffffffffffffffffffffffffffffffffffffff169050600073ffffffffffffffffffffffffffffffffffffffff168173ffffffffffffffffffffffffffffffffffffffff1614156109c3576040517f08c379a00000000000000000000000000000000000000000000000000000000081526004016109ba90612a71565b60405180910390fd5b80915050919050565b60008073ffffffffffffffffffffffffffffffffffffffff168273ffffffffffffffffffffffffffffffffffffffff161415610a3d576040517f08c379a0000000000000000000000000000000000000000000000000000000008152600401610a3490612a51565b60405180910390fd5b600360008373ffffffffffffffffffffffffffffffffffffffff1673ffffffffffffffffffffffffffffffffffffffff168152602001908152602001600020549050919050565b6000610a90600761156e565b6000610a9c6007611584565b9050610aa83382611592565b610ab281856115b0565b610abc8184611624565b8091505092915050565b606060018054610ad590612e31565b80601f0160208091040260200160405190810160405280929190818152602001828054610b0190612e31565b8015610b4e5780601f10610b2357610100808354040283529160200191610b4e565b820191906000526020600020905b815481529060010190602001808311610b3157829003601f168201915b5050505050905090565b610b60611173565b73ffffffffffffffffffffffffffffffffffffffff168273ffffffffffffffffffffffffffffffffffffffff161415610bce576040517f08c379a0000000000000000000000000000000000000000000000000000000008152600401610bc5906129f1565b60405180910390fd5b8060056000610bdb611173565b73ffffffffffffffffffffffffffffffffffffffff1673ffffffffffffffffffffffffffffffffffffffff16815260200190815260200160002060008473ffffffffffffffffffffffffffffffffffffffff1673ffffffffffffffffffffffffffffffffffffffff16815260200190815260200160002060006101000a81548160ff0219169083151502179055508173ffffffffffffffffffffffffffffffffffffffff16610c88611173565b73ffffffffffffffffffffffffffffffffffffffff167f17307eab39ab6107e8899845ad3d59bd9653f200f220920489ca2b5937696c3183604051610ccd9190612954565b60405180910390a35050565b610cea610ce4611173565b83611234565b610d29576040517f08c379a0000000000000000000000000000000000000000000000000000000008152600401610d2090612bb1565b60405180910390fd5b610d3584848484611682565b50505050565b606081610d478161091a565b73ffffffffffffffffffffffffffffffffffffffff163373ffffffffffffffffffffffffffffffffffffffff1614610db4576040517f08c379a0000000000000000000000000000000000000000000000000000000008152600401610dab90612b11565b60405180910390fd5b60016008600085815260200190815260200160002060010160006101000a81548160ff021916908315150217905550600860008481526020019081526020016000206000018054610e0490612e31565b80601f0160208091040260200160405190810160405280929190818152602001828054610e3090612e31565b8015610e7d5780601f10610e5257610100808354040283529160200191610e7d565b820191906000526020600020905b815481529060010190602001808311610e6057829003601f168201915b5050505050915050919050565b6060610e9582611107565b610ed4576040517f08c379a0000000000000000000000000000000000000000000000000000000008152600401610ecb90612ad1565b60405180910390fd5b6000600660008481526020019081526020016000208054610ef490612e31565b80601f0160208091040260200160405190810160405280929190818152602001828054610f2090612e31565b8015610f6d5780601f10610f4257610100808354040283529160200191610f6d565b820191906000526020600020905b815481529060010190602001808311610f5057829003601f168201915b505050505090506000610f7e6116de565b9050600081511415610f94578192505050610fd7565b600082511115610fc9578082604051602001610fb19291906128c9565b60405160208183030381529060405292505050610fd7565b610fd2846116f5565b925050505b919050565b60006008600083815260200190815260200160002060010160009054906101000a900460ff169050919050565b6000600560008473ffffffffffffffffffffffffffffffffffffffff1673ffffffffffffffffffffffffffffffffffffffff16815260200190815260200160002060008373ffffffffffffffffffffffffffffffffffffffff1673ffffffffffffffffffffffffffffffffffffffff16815260200190815260200160002060009054906101000a900460ff16905092915050565b60007f01ffc9a7000000000000000000000000000000000000000000000000000000007bffffffffffffffffffffffffffffffffffffffffffffffffffffffff1916827bffffffffffffffffffffffffffffffffffffffffffffffffffffffff1916149050919050565b60008073ffffffffffffffffffffffffffffffffffffffff166002600084815260200190815260200160002060009054906101000a900473ffffffffffffffffffffffffffffffffffffffff1673ffffffffffffffffffffffffffffffffffffffff1614159050919050565b600033905090565b816004600083815260200190815260200160002060006101000a81548173ffffffffffffffffffffffffffffffffffffffff021916908373ffffffffffffffffffffffffffffffffffffffff160217905550808273ffffffffffffffffffffffffffffffffffffffff166111ee8361091a565b73ffffffffffffffffffffffffffffffffffffffff167f8c5be1e5ebec7d5bd14f71427d1e84f3dd0314c0f7b2291e5b200ac8c7c3b92560405160405180910390a45050565b600061123f82611107565b61127e576040517f08c379a000000000000000000000000000000000000000000000000000000000815260040161127590612a11565b60405180910390fd5b60006112898361091a565b90508073ffffffffffffffffffffffffffffffffffffffff168473ffffffffffffffffffffffffffffffffffffffff1614806112f857508373ffffffffffffffffffffffffffffffffffffffff166112e08461052c565b73ffffffffffffffffffffffffffffffffffffffff16145b8061130957506113088185611009565b5b91505092915050565b8273ffffffffffffffffffffffffffffffffffffffff166113328261091a565b73ffffffffffffffffffffffffffffffffffffffff1614611388576040517f08c379a000000000000000000000000000000000000000000000000000000000815260040161137f90612b31565b60405180910390fd5b600073ffffffffffffffffffffffffffffffffffffffff168273ffffffffffffffffffffffffffffffffffffffff1614156113f8576040517f08c379a00000000000000000000000000000000000000000000000000000000081526004016113ef906129d1565b60405180910390fd5b61140383838361179c565b61140e60008261117b565b6001600360008573ffffffffffffffffffffffffffffffffffffffff1673ffffffffffffffffffffffffffffffffffffffff168152602001908152602001600020600082825461145e9190612d47565b925050819055506001600360008473ffffffffffffffffffffffffffffffffffffffff1673ffffffffffffffffffffffffffffffffffffffff16815260200190815260200160002060008282546114b59190612cc0565b92505081905550816002600083815260200190815260200160002060006101000a81548173ffffffffffffffffffffffffffffffffffffffff021916908373ffffffffffffffffffffffffffffffffffffffff160217905550808273ffffffffffffffffffffffffffffffffffffffff168473ffffffffffffffffffffffffffffffffffffffff167fddf252ad1be2c89b69c2b068fc378daa952ba7f163c4a11628f55a4df523b3ef60405160405180910390a4505050565b6001816000016000828254019250508190555050565b600081600001549050919050565b6115ac8282604051806020016040528060008152506117a1565b5050565b6115b982611107565b6115f8576040517f08c379a00000000000000000000000000000000000000000000000000000000081526004016115ef90612a91565b60405180910390fd5b8060066000848152602001908152602001600020908051906020019061161f929190611d21565b505050565b8060086000848152602001908152602001600020600001908051906020019061164e929190611d21565b5060006008600084815260200190815260200160002060010160006101000a81548160ff0219169083151502179055505050565b61168d848484611312565b611699848484846117fc565b6116d8576040517f08c379a00000000000000000000000000000000000000000000000000000000081526004016116cf90612991565b60405180910390fd5b50505050565b606060405180602001604052806000815250905090565b606061170082611107565b61173f576040517f08c379a000000000000000000000000000000000000000000000000000000000815260040161173690612b51565b60405180910390fd5b60006117496116de565b905060008151116117695760405180602001604052806000815250611794565b8061177384611993565b6040516020016117849291906128c9565b6040516020818303038152906040525b915050919050565b505050565b6117ab8383611b40565b6117b860008484846117fc565b6117f7576040517f08c379a00000000000000000000000000000000000000000000000000000000081526004016117ee90612991565b60405180910390fd5b505050565b600061181d8473ffffffffffffffffffffffffffffffffffffffff16611d0e565b15611986578373ffffffffffffffffffffffffffffffffffffffff1663150b7a02611846611173565b8786866040518563ffffffff1660e01b81526004016118689493929190612908565b602060405180830381600087803b15801561188257600080fd5b505af19250505080156118b357506040513d601f19601f820116820180604052508101906118b091906120cd565b60015b611936573d80600081146118e3576040519150601f19603f3d011682016040523d82523d6000602084013e6118e8565b606091505b5060008151141561192e576040517f08c379a000000000000000000000000000000000000000000000000000000000815260040161192590612991565b60405180910390fd5b805181602001fd5b63150b7a0260e01b7bffffffffffffffffffffffffffffffffffffffffffffffffffffffff1916817bffffffffffffffffffffffffffffffffffffffffffffffffffffffff19161491505061198b565b600190505b949350505050565b606060008214156119db576040518060400160405280600181526020017f30000000000000000000000000000000000000000000000000000000000000008152509050611b3b565b600082905060005b60008214611a0d5780806119f690612e63565b915050600a82611a069190612d16565b91506119e3565b60008167ffffffffffffffff811115611a4f577f4e487b7100000000000000000000000000000000000000000000000000000000600052604160045260246000fd5b6040519080825280601f01601f191660200182016040528015611a815781602001600182028036833780820191505090505b5090505b60008514611b3457600182611a9a9190612d47565b9150600a85611aa99190612eac565b6030611ab59190612cc0565b60f81b818381518110611af1577f4e487b7100000000000000000000000000000000000000000000000000000000600052603260045260246000fd5b60200101907effffffffffffffffffffffffffffffffffffffffffffffffffffffffffffff1916908160001a905350600a85611b2d9190612d16565b9450611a85565b8093505050505b919050565b600073ffffffffffffffffffffffffffffffffffffffff168273ffffffffffffffffffffffffffffffffffffffff161415611bb0576040517f08c379a0000000000000000000000000000000000000000000000000000000008152600401611ba790612ab1565b60405180910390fd5b611bb981611107565b15611bf9576040517f08c379a0000000000000000000000000000000000000000000000000000000008152600401611bf0906129b1565b60405180910390fd5b611c056000838361179c565b6001600360008473ffffffffffffffffffffffffffffffffffffffff1673ffffffffffffffffffffffffffffffffffffffff1681526020019081526020016000206000828254611c559190612cc0565b92505081905550816002600083815260200190815260200160002060006101000a81548173ffffffffffffffffffffffffffffffffffffffff021916908373ffffffffffffffffffffffffffffffffffffffff160217905550808273ffffffffffffffffffffffffffffffffffffffff16600073ffffffffffffffffffffffffffffffffffffffff167fddf252ad1be2c89b69c2b068fc378daa952ba7f163c4a11628f55a4df523b3ef60405160405180910390a45050565b600080823b905060008111915050919050565b828054611d2d90612e31565b90600052602060002090601f016020900481019282611d4f5760008555611d96565b82601f10611d6857805160ff1916838001178555611d96565b82800160010185558215611d96579182015b82811115611d95578251825591602001919060010190611d7a565b5b509050611da39190611da7565b5090565b5b80821115611dc0576000816000905550600101611da8565b5090565b6000611dd7611dd284612c1d565b612bec565b905082815260208101848484011115611def57600080fd5b611dfa848285612def565b509392505050565b6000611e15611e1084612c4d565b612bec565b905082815260208101848484011115611e2d57600080fd5b611e38848285612def565b509392505050565b600081359050611e4f81612faa565b92915050565b600081359050611e6481612fc1565b92915050565b600081359050611e7981612fd8565b92915050565b600081519050611e8e81612fd8565b92915050565b600082601f830112611ea557600080fd5b8135611eb5848260208601611dc4565b91505092915050565b600082601f830112611ecf57600080fd5b8135611edf848260208601611e02565b91505092915050565b600081359050611ef781612fef565b92915050565b600060208284031215611f0f57600080fd5b6000611f1d84828501611e40565b91505092915050565b60008060408385031215611f3957600080fd5b6000611f4785828601611e40565b9250506020611f5885828601611e40565b9150509250929050565b600080600060608486031215611f7757600080fd5b6000611f8586828701611e40565b9350506020611f9686828701611e40565b9250506040611fa786828701611ee8565b9150509250925092565b60008060008060808587031215611fc757600080fd5b6000611fd587828801611e40565b9450506020611fe687828801611e40565b9350506040611ff787828801611ee8565b925050606085013567ffffffffffffffff81111561201457600080fd5b61202087828801611e94565b91505092959194509250565b6000806040838503121561203f57600080fd5b600061204d85828601611e40565b925050602061205e85828601611e55565b9150509250929050565b6000806040838503121561207b57600080fd5b600061208985828601611e40565b925050602061209a85828601611ee8565b9150509250929050565b6000602082840312156120b657600080fd5b60006120c484828501611e6a565b91505092915050565b6000602082840312156120df57600080fd5b60006120ed84828501611e7f565b91505092915050565b6000806040838503121561210957600080fd5b600083013567ffffffffffffffff81111561212357600080fd5b61212f85828601611ebe565b925050602083013567ffffffffffffffff81111561214c57600080fd5b61215885828601611ebe565b9150509250929050565b60006020828403121561217457600080fd5b600061218284828501611ee8565b91505092915050565b61219481612d7b565b82525050565b6121a381612d8d565b82525050565b60006121b482612c7d565b6121be8185612c93565b93506121ce818560208601612dfe565b6121d781612f99565b840191505092915050565b60006121ed82612c88565b6121f78185612ca4565b9350612207818560208601612dfe565b61221081612f99565b840191505092915050565b600061222682612c88565b6122308185612cb5565b9350612240818560208601612dfe565b80840191505092915050565b6000612259603283612ca4565b91507f4552433732313a207472616e7366657220746f206e6f6e20455243373231526560008301527f63656976657220696d706c656d656e74657200000000000000000000000000006020830152604082019050919050565b60006122bf601c83612ca4565b91507f4552433732313a20746f6b656e20616c7265616479206d696e746564000000006000830152602082019050919050565b60006122ff602483612ca4565b91507f4552433732313a207472616e7366657220746f20746865207a65726f2061646460008301527f72657373000000000000000000000000000000000000000000000000000000006020830152604082019050919050565b6000612365601983612ca4565b91507f4552433732313a20617070726f766520746f2063616c6c6572000000000000006000830152602082019050919050565b60006123a5602c83612ca4565b91507f4552433732313a206f70657261746f7220717565727920666f72206e6f6e657860008301527f697374656e7420746f6b656e00000000000000000000000000000000000000006020830152604082019050919050565b600061240b603883612ca4565b91507f4552433732313a20617070726f76652063616c6c6572206973206e6f74206f7760008301527f6e6572206e6f7220617070726f76656420666f7220616c6c00000000000000006020830152604082019050919050565b6000612471602a83612ca4565b91507f4552433732313a2062616c616e636520717565727920666f7220746865207a6560008301527f726f2061646472657373000000000000000000000000000000000000000000006020830152604082019050919050565b60006124d7602983612ca4565b91507f4552433732313a206f776e657220717565727920666f72206e6f6e657869737460008301527f656e7420746f6b656e00000000000000000000000000000000000000000000006020830152604082019050919050565b600061253d602e83612ca4565b91507f45524337323155524953746f726167653a2055524920736574206f66206e6f6e60008301527f6578697374656e7420746f6b656e0000000000000000000000000000000000006020830152604082019050919050565b60006125a3602083612ca4565b91507f4552433732313a206d696e7420746f20746865207a65726f20616464726573736000830152602082019050919050565b60006125e3603183612ca4565b91507f45524337323155524953746f726167653a2055524920717565727920666f722060008301527f6e6f6e6578697374656e7420746f6b656e0000000000000000000000000000006020830152604082019050919050565b6000612649602c83612ca4565b91507f4552433732313a20617070726f76656420717565727920666f72206e6f6e657860008301527f697374656e7420746f6b656e00000000000000000000000000000000000000006020830152604082019050919050565b60006126af601d83612ca4565b91507f4f6e6c79204e466f67206f776e657220697320617574686f72697a65640000006000830152602082019050919050565b60006126ef602983612ca4565b91507f4552433732313a207472616e73666572206f6620746f6b656e2074686174206960008301527f73206e6f74206f776e00000000000000000000000000000000000000000000006020830152604082019050919050565b6000612755602f83612ca4565b91507f4552433732314d657461646174613a2055524920717565727920666f72206e6f60008301527f6e6578697374656e7420746f6b656e00000000000000000000000000000000006020830152604082019050919050565b60006127bb602183612ca4565b91507f4552433732313a20617070726f76616c20746f2063757272656e74206f776e6560008301527f72000000000000000000000000000000000000000000000000000000000000006020830152604082019050919050565b6000612821601383612ca4565b91507f4e466f67206973206e6f74206f70656e6e6564000000000000000000000000006000830152602082019050919050565b6000612861603183612ca4565b91507f4552433732313a207472616e736665722063616c6c6572206973206e6f74206f60008301527f776e6572206e6f7220617070726f7665640000000000000000000000000000006020830152604082019050919050565b6128c381612de5565b82525050565b60006128d5828561221b565b91506128e1828461221b565b91508190509392505050565b6000602082019050612902600083018461218b565b92915050565b600060808201905061291d600083018761218b565b61292a602083018661218b565b61293760408301856128ba565b818103606083015261294981846121a9565b905095945050505050565b6000602082019050612969600083018461219a565b92915050565b6000602082019050818103600083015261298981846121e2565b905092915050565b600060208201905081810360008301526129aa8161224c565b9050919050565b600060208201905081810360008301526129ca816122b2565b9050919050565b600060208201905081810360008301526129ea816122f2565b9050919050565b60006020820190508181036000830152612a0a81612358565b9050919050565b60006020820190508181036000830152612a2a81612398565b9050919050565b60006020820190508181036000830152612a4a816123fe565b9050919050565b60006020820190508181036000830152612a6a81612464565b9050919050565b60006020820190508181036000830152612a8a816124ca565b9050919050565b60006020820190508181036000830152612aaa81612530565b9050919050565b60006020820190508181036000830152612aca81612596565b9050919050565b60006020820190508181036000830152612aea816125d6565b9050919050565b60006020820190508181036000830152612b0a8161263c565b9050919050565b60006020820190508181036000830152612b2a816126a2565b9050919050565b60006020820190508181036000830152612b4a816126e2565b9050919050565b60006020820190508181036000830152612b6a81612748565b9050919050565b60006020820190508181036000830152612b8a816127ae565b9050919050565b60006020820190508181036000830152612baa81612814565b9050919050565b60006020820190508181036000830152612bca81612854565b9050919050565b6000602082019050612be660008301846128ba565b92915050565b6000604051905081810181811067ffffffffffffffff82111715612c1357612c12612f6a565b5b8060405250919050565b600067ffffffffffffffff821115612c3857612c37612f6a565b5b601f19601f8301169050602081019050919050565b600067ffffffffffffffff821115612c6857612c67612f6a565b5b601f19601f8301169050602081019050919050565b600081519050919050565b600081519050919050565b600082825260208201905092915050565b600082825260208201905092915050565b600081905092915050565b6000612ccb82612de5565b9150612cd683612de5565b9250827fffffffffffffffffffffffffffffffffffffffffffffffffffffffffffffffff03821115612d0b57612d0a612edd565b5b828201905092915050565b6000612d2182612de5565b9150612d2c83612de5565b925082612d3c57612d3b612f0c565b5b828204905092915050565b6000612d5282612de5565b9150612d5d83612de5565b925082821015612d7057612d6f612edd565b5b828203905092915050565b6000612d8682612dc5565b9050919050565b60008115159050919050565b60007fffffffff0000000000000000000000000000000000000000000000000000000082169050919050565b600073ffffffffffffffffffffffffffffffffffffffff82169050919050565b6000819050919050565b82818337600083830152505050565b60005b83811015612e1c578082015181840152602081019050612e01565b83811115612e2b576000848401525b50505050565b60006002820490506001821680612e4957607f821691505b60208210811415612e5d57612e5c612f3b565b5b50919050565b6000612e6e82612de5565b91507fffffffffffffffffffffffffffffffffffffffffffffffffffffffffffffffff821415612ea157612ea0612edd565b5b600182019050919050565b6000612eb782612de5565b9150612ec283612de5565b925082612ed257612ed1612f0c565b5b828206905092915050565b7f4e487b7100000000000000000000000000000000000000000000000000000000600052601160045260246000fd5b7f4e487b7100000000000000000000000000000000000000000000000000000000600052601260045260246000fd5b7f4e487b7100000000000000000000000000000000000000000000000000000000600052602260045260246000fd5b7f4e487b7100000000000000000000000000000000000000000000000000000000600052604160045260246000fd5b6000601f19601f8301169050919050565b612fb381612d7b565b8114612fbe57600080fd5b50565b612fca81612d8d565b8114612fd557600080fd5b50565b612fe181612d99565b8114612fec57600080fd5b50565b612ff881612de5565b811461300357600080fd5b5056fea2646970667358221220d2282583cef3ab752c53c5be84a8cf72a98de6304ffb9284e181c4458f36333f64736f6c63430008000033",
  "linkReferences": {},
  "deployedLinkReferences": {}
}